{
  "_format": "hh-sol-artifact-1",
  "contractName": "PrincipalMigrationContract",
  "sourceName": "contracts/principal/PrincipalMigrationContract.sol",
  "abi": [
    {
      "inputs": [
        {
          "internalType": "address",
          "name": "_mimo",
          "type": "address"
        },
        {
          "internalType": "address",
          "name": "_prl",
          "type": "address"
        },
        {
          "internalType": "address",
          "name": "_lockBox",
          "type": "address"
        },
        {
          "internalType": "address",
          "name": "_endpoint",
          "type": "address"
        },
        {
          "internalType": "address",
          "name": "_owner",
          "type": "address"
        }
      ],
      "stateMutability": "nonpayable",
      "type": "constructor"
    },
    {
      "inputs": [],
      "name": "AddressZero",
      "type": "error"
    },
    {
      "inputs": [],
      "name": "EnforcedPause",
      "type": "error"
    },
    {
      "inputs": [],
      "name": "ExpectedPause",
      "type": "error"
    },
    {
      "inputs": [],
      "name": "InvalidDelegate",
      "type": "error"
    },
    {
      "inputs": [],
      "name": "InvalidEndpointCall",
      "type": "error"
    },
    {
      "inputs": [
        {
          "internalType": "bytes",
          "name": "options",
          "type": "bytes"
        }
      ],
      "name": "InvalidOptions",
      "type": "error"
    },
    {
      "inputs": [
        {
          "internalType": "uint32",
          "name": "eid",
          "type": "uint32"
        }
      ],
      "name": "NoPeer",
      "type": "error"
    },
    {
      "inputs": [
        {
          "internalType": "address",
          "name": "addr",
          "type": "address"
        }
      ],
      "name": "OnlyEndpoint",
      "type": "error"
    },
    {
      "inputs": [
        {
          "internalType": "uint32",
          "name": "eid",
          "type": "uint32"
        },
        {
          "internalType": "bytes32",
          "name": "sender",
          "type": "bytes32"
        }
      ],
      "name": "OnlyPeer",
      "type": "error"
    },
    {
      "inputs": [
        {
          "internalType": "address",
          "name": "owner",
          "type": "address"
        }
      ],
      "name": "OwnableInvalidOwner",
      "type": "error"
    },
    {
      "inputs": [
        {
          "internalType": "address",
          "name": "account",
          "type": "address"
        }
      ],
      "name": "OwnableUnauthorizedAccount",
      "type": "error"
    },
    {
      "inputs": [],
      "name": "ReentrancyGuardReentrantCall",
      "type": "error"
    },
    {
      "inputs": [
        {
          "internalType": "address",
          "name": "token",
          "type": "address"
        }
      ],
      "name": "SafeERC20FailedOperation",
      "type": "error"
    },
    {
      "anonymous": false,
      "inputs": [
        {
          "indexed": true,
          "internalType": "address",
          "name": "token",
          "type": "address"
        },
        {
          "indexed": false,
          "internalType": "uint256",
          "name": "amount",
          "type": "uint256"
        },
        {
          "indexed": true,
          "internalType": "address",
          "name": "recipient",
          "type": "address"
        }
      ],
      "name": "EmergencyRescued",
      "type": "event"
    },
    {
      "anonymous": false,
      "inputs": [
        {
          "components": [
            {
              "internalType": "uint32",
              "name": "eid",
              "type": "uint32"
            },
            {
              "internalType": "uint16",
              "name": "msgType",
              "type": "uint16"
            },
            {
              "internalType": "bytes",
              "name": "options",
              "type": "bytes"
            }
          ],
          "indexed": false,
          "internalType": "struct EnforcedOptionParam[]",
          "name": "_enforcedOptions",
          "type": "tuple[]"
        }
      ],
      "name": "EnforcedOptionSet",
      "type": "event"
    },
    {
      "anonymous": false,
      "inputs": [
        {
          "indexed": false,
          "internalType": "address",
          "name": "caller",
          "type": "address"
        },
        {
          "indexed": false,
          "internalType": "address",
          "name": "receiver",
          "type": "address"
        },
        {
          "indexed": false,
          "internalType": "uint256",
          "name": "amount",
          "type": "uint256"
        }
      ],
      "name": "MIMOToPRLMigrated",
      "type": "event"
    },
    {
      "anonymous": false,
      "inputs": [
        {
          "indexed": false,
          "internalType": "address",
          "name": "caller",
          "type": "address"
        },
        {
          "indexed": false,
          "internalType": "address",
          "name": "receiver",
          "type": "address"
        },
        {
          "components": [
            {
              "internalType": "uint32",
              "name": "dstEid",
              "type": "uint32"
            },
            {
              "internalType": "bytes32",
              "name": "to",
              "type": "bytes32"
            },
            {
              "internalType": "uint256",
              "name": "amount",
              "type": "uint256"
            },
            {
              "internalType": "uint256",
              "name": "minAmount",
              "type": "uint256"
            },
            {
              "internalType": "bytes",
              "name": "extraOptions",
              "type": "bytes"
            },
            {
              "internalType": "bytes",
              "name": "composeMsg",
              "type": "bytes"
            },
            {
              "internalType": "bytes",
              "name": "oftCmd",
              "type": "bytes"
            }
          ],
          "indexed": false,
          "internalType": "struct SendParam",
          "name": "sendParam",
          "type": "tuple"
        },
        {
          "components": [
            {
              "internalType": "uint256",
              "name": "nativeFee",
              "type": "uint256"
            },
            {
              "internalType": "uint256",
              "name": "lzTokenFee",
              "type": "uint256"
            }
          ],
          "indexed": false,
          "internalType": "struct MessagingFee",
          "name": "fee",
          "type": "tuple"
        }
      ],
      "name": "MIMOToPRLMigratedAndBridged",
      "type": "event"
    },
    {
      "anonymous": false,
      "inputs": [
        {
          "indexed": false,
          "internalType": "bytes32",
          "name": "guid",
          "type": "bytes32"
        },
        {
          "indexed": false,
          "internalType": "uint32",
          "name": "srcEid",
          "type": "uint32"
        },
        {
          "indexed": false,
          "internalType": "address",
          "name": "sender",
          "type": "address"
        },
        {
          "indexed": false,
          "internalType": "uint32",
          "name": "destEid",
          "type": "uint32"
        },
        {
          "indexed": false,
          "internalType": "address",
          "name": "receiver",
          "type": "address"
        },
        {
          "indexed": false,
          "internalType": "uint256",
          "name": "mimoAmount",
          "type": "uint256"
        },
        {
          "indexed": false,
          "internalType": "uint256",
          "name": "prlAmount",
          "type": "uint256"
        }
      ],
      "name": "MigrationMessageReceived",
      "type": "event"
    },
    {
      "anonymous": false,
      "inputs": [
        {
          "indexed": true,
          "internalType": "address",
          "name": "previousOwner",
          "type": "address"
        },
        {
          "indexed": true,
          "internalType": "address",
          "name": "newOwner",
          "type": "address"
        }
      ],
      "name": "OwnershipTransferred",
      "type": "event"
    },
    {
      "anonymous": false,
      "inputs": [
        {
          "indexed": false,
          "internalType": "address",
          "name": "account",
          "type": "address"
        }
      ],
      "name": "Paused",
      "type": "event"
    },
    {
      "anonymous": false,
      "inputs": [
        {
          "indexed": false,
          "internalType": "uint32",
          "name": "eid",
          "type": "uint32"
        },
        {
          "indexed": false,
          "internalType": "bytes32",
          "name": "peer",
          "type": "bytes32"
        }
      ],
      "name": "PeerSet",
      "type": "event"
    },
    {
      "anonymous": false,
      "inputs": [
        {
          "indexed": false,
          "internalType": "address",
          "name": "account",
          "type": "address"
        }
      ],
      "name": "Unpaused",
      "type": "event"
    },
    {
      "inputs": [],
      "name": "MIMO",
      "outputs": [
        {
          "internalType": "contract IERC20",
          "name": "",
          "type": "address"
        }
      ],
      "stateMutability": "view",
      "type": "function"
    },
    {
      "inputs": [],
      "name": "PRL",
      "outputs": [
        {
          "internalType": "contract IERC20",
          "name": "",
          "type": "address"
        }
      ],
      "stateMutability": "view",
      "type": "function"
    },
    {
      "inputs": [
        {
          "internalType": "bytes",
          "name": "_encodedMessage",
          "type": "bytes"
        }
      ],
      "name": "_decodeMessage",
      "outputs": [
        {
          "internalType": "address",
          "name": "receiver",
          "type": "address"
        },
        {
          "internalType": "uint256",
          "name": "amount",
          "type": "uint256"
        },
        {
          "internalType": "uint32",
          "name": "destEid",
          "type": "uint32"
        },
        {
          "internalType": "uint256",
          "name": "extraOptionsLength",
          "type": "uint256"
        }
      ],
      "stateMutability": "pure",
      "type": "function"
    },
    {
      "inputs": [
        {
          "components": [
            {
              "internalType": "uint32",
              "name": "srcEid",
              "type": "uint32"
            },
            {
              "internalType": "bytes32",
              "name": "sender",
              "type": "bytes32"
            },
            {
              "internalType": "uint64",
              "name": "nonce",
              "type": "uint64"
            }
          ],
          "internalType": "struct Origin",
          "name": "origin",
          "type": "tuple"
        }
      ],
      "name": "allowInitializePath",
      "outputs": [
        {
          "internalType": "bool",
          "name": "",
          "type": "bool"
        }
      ],
      "stateMutability": "view",
      "type": "function"
    },
    {
      "inputs": [
        {
          "internalType": "uint32",
          "name": "_eid",
          "type": "uint32"
        },
        {
          "internalType": "uint16",
          "name": "_msgType",
          "type": "uint16"
        },
        {
          "internalType": "bytes",
          "name": "_extraOptions",
          "type": "bytes"
        }
      ],
      "name": "combineOptions",
      "outputs": [
        {
          "internalType": "bytes",
          "name": "",
          "type": "bytes"
        }
      ],
      "stateMutability": "view",
      "type": "function"
    },
    {
      "inputs": [
        {
          "internalType": "address",
          "name": "_token",
          "type": "address"
        },
        {
          "internalType": "uint256",
          "name": "_amount",
          "type": "uint256"
        }
      ],
      "name": "emergencyRescue",
      "outputs": [],
      "stateMutability": "nonpayable",
      "type": "function"
    },
    {
      "inputs": [],
      "name": "endpoint",
      "outputs": [
        {
          "internalType": "contract ILayerZeroEndpointV2",
          "name": "",
          "type": "address"
        }
      ],
      "stateMutability": "view",
      "type": "function"
    },
    {
      "inputs": [
        {
          "internalType": "uint32",
          "name": "eid",
          "type": "uint32"
        },
        {
          "internalType": "uint16",
          "name": "msgType",
          "type": "uint16"
        }
      ],
      "name": "enforcedOptions",
      "outputs": [
        {
          "internalType": "bytes",
          "name": "enforcedOption",
          "type": "bytes"
        }
      ],
      "stateMutability": "view",
      "type": "function"
    },
    {
      "inputs": [
        {
          "components": [
            {
              "internalType": "uint32",
              "name": "srcEid",
              "type": "uint32"
            },
            {
              "internalType": "bytes32",
              "name": "sender",
              "type": "bytes32"
            },
            {
              "internalType": "uint64",
              "name": "nonce",
              "type": "uint64"
            }
          ],
          "internalType": "struct Origin",
          "name": "",
          "type": "tuple"
        },
        {
          "internalType": "bytes",
          "name": "",
          "type": "bytes"
        },
        {
          "internalType": "address",
          "name": "_sender",
          "type": "address"
        }
      ],
      "name": "isComposeMsgSender",
      "outputs": [
        {
          "internalType": "bool",
          "name": "",
          "type": "bool"
        }
      ],
      "stateMutability": "view",
      "type": "function"
    },
    {
      "inputs": [],
      "name": "lockBox",
      "outputs": [
        {
          "internalType": "contract IOFT",
          "name": "",
          "type": "address"
        }
      ],
      "stateMutability": "view",
      "type": "function"
    },
    {
      "inputs": [
        {
          "components": [
            {
              "internalType": "uint32",
              "name": "srcEid",
              "type": "uint32"
            },
            {
              "internalType": "bytes32",
              "name": "sender",
              "type": "bytes32"
            },
            {
              "internalType": "uint64",
              "name": "nonce",
              "type": "uint64"
            }
          ],
          "internalType": "struct Origin",
          "name": "_origin",
          "type": "tuple"
        },
        {
          "internalType": "bytes32",
          "name": "_guid",
          "type": "bytes32"
        },
        {
          "internalType": "bytes",
          "name": "_message",
          "type": "bytes"
        },
        {
          "internalType": "address",
          "name": "_executor",
          "type": "address"
        },
        {
          "internalType": "bytes",
          "name": "_extraData",
          "type": "bytes"
        }
      ],
      "name": "lzReceive",
      "outputs": [],
      "stateMutability": "payable",
      "type": "function"
    },
    {
      "inputs": [
        {
          "internalType": "uint256",
          "name": "_amount",
          "type": "uint256"
        },
        {
          "internalType": "address",
          "name": "_recipient",
          "type": "address"
        }
      ],
      "name": "migrateToPRL",
      "outputs": [],
      "stateMutability": "nonpayable",
      "type": "function"
    },
    {
      "inputs": [
        {
          "components": [
            {
              "internalType": "uint32",
              "name": "dstEid",
              "type": "uint32"
            },
            {
              "internalType": "bytes32",
              "name": "to",
              "type": "bytes32"
            },
            {
              "internalType": "uint256",
              "name": "amount",
              "type": "uint256"
            },
            {
              "internalType": "uint256",
              "name": "minAmount",
              "type": "uint256"
            },
            {
              "internalType": "bytes",
              "name": "extraOptions",
              "type": "bytes"
            },
            {
              "internalType": "bytes",
              "name": "composeMsg",
              "type": "bytes"
            },
            {
              "internalType": "bytes",
              "name": "oftCmd",
              "type": "bytes"
            }
          ],
          "internalType": "struct SendParam",
          "name": "_sendParam",
          "type": "tuple"
        },
        {
          "components": [
            {
              "internalType": "uint256",
              "name": "nativeFee",
              "type": "uint256"
            },
            {
              "internalType": "uint256",
              "name": "lzTokenFee",
              "type": "uint256"
            }
          ],
          "internalType": "struct MessagingFee",
          "name": "_fee",
          "type": "tuple"
        }
      ],
      "name": "migrateToPRLAndBridge",
      "outputs": [],
      "stateMutability": "payable",
      "type": "function"
    },
    {
      "inputs": [
        {
          "internalType": "uint32",
          "name": "",
          "type": "uint32"
        },
        {
          "internalType": "bytes32",
          "name": "",
          "type": "bytes32"
        }
      ],
      "name": "nextNonce",
      "outputs": [
        {
          "internalType": "uint64",
          "name": "nonce",
          "type": "uint64"
        }
      ],
      "stateMutability": "view",
      "type": "function"
    },
    {
      "inputs": [],
      "name": "oAppVersion",
      "outputs": [
        {
          "internalType": "uint64",
          "name": "senderVersion",
          "type": "uint64"
        },
        {
          "internalType": "uint64",
          "name": "receiverVersion",
          "type": "uint64"
        }
      ],
      "stateMutability": "view",
      "type": "function"
    },
    {
      "inputs": [],
      "name": "owner",
      "outputs": [
        {
          "internalType": "address",
          "name": "",
          "type": "address"
        }
      ],
      "stateMutability": "view",
      "type": "function"
    },
    {
      "inputs": [],
      "name": "pause",
      "outputs": [],
      "stateMutability": "nonpayable",
      "type": "function"
    },
    {
      "inputs": [],
      "name": "paused",
      "outputs": [
        {
          "internalType": "bool",
          "name": "",
          "type": "bool"
        }
      ],
      "stateMutability": "view",
      "type": "function"
    },
    {
      "inputs": [
        {
          "internalType": "uint32",
          "name": "eid",
          "type": "uint32"
        }
      ],
      "name": "peers",
      "outputs": [
        {
          "internalType": "bytes32",
          "name": "peer",
          "type": "bytes32"
        }
      ],
      "stateMutability": "view",
      "type": "function"
    },
    {
      "inputs": [],
      "name": "renounceOwnership",
      "outputs": [],
      "stateMutability": "nonpayable",
      "type": "function"
    },
    {
      "inputs": [
        {
          "internalType": "address",
          "name": "_delegate",
          "type": "address"
        }
      ],
      "name": "setDelegate",
      "outputs": [],
      "stateMutability": "nonpayable",
      "type": "function"
    },
    {
      "inputs": [
        {
          "components": [
            {
              "internalType": "uint32",
              "name": "eid",
              "type": "uint32"
            },
            {
              "internalType": "uint16",
              "name": "msgType",
              "type": "uint16"
            },
            {
              "internalType": "bytes",
              "name": "options",
              "type": "bytes"
            }
          ],
          "internalType": "struct EnforcedOptionParam[]",
          "name": "_enforcedOptions",
          "type": "tuple[]"
        }
      ],
      "name": "setEnforcedOptions",
      "outputs": [],
      "stateMutability": "nonpayable",
      "type": "function"
    },
    {
      "inputs": [
        {
          "internalType": "uint32",
          "name": "_eid",
          "type": "uint32"
        },
        {
          "internalType": "bytes32",
          "name": "_peer",
          "type": "bytes32"
        }
      ],
      "name": "setPeer",
      "outputs": [],
      "stateMutability": "nonpayable",
      "type": "function"
    },
    {
      "inputs": [
        {
          "internalType": "address",
          "name": "newOwner",
          "type": "address"
        }
      ],
      "name": "transferOwnership",
      "outputs": [],
      "stateMutability": "nonpayable",
      "type": "function"
    },
    {
      "inputs": [],
      "name": "unpause",
      "outputs": [],
      "stateMutability": "nonpayable",
      "type": "function"
    },
    {
      "stateMutability": "payable",
      "type": "receive"
    }
  ],
  "bytecode": "0x61010060405234801561001157600080fd5b506040516126da3803806126da83398101604081905261003091610208565b8181806001600160a01b03811661006157604051631e4fbdf760e01b81526000600482015260240160405180910390fd5b61006a8161019c565b506001600160a01b03808316608052811661009857604051632d618d8160e21b815260040160405180910390fd5b60805160405163ca5eb5e160e01b81526001600160a01b0383811660048301529091169063ca5eb5e190602401600060405180830381600087803b1580156100df57600080fd5b505af11580156100f3573d6000803e3d6000fd5b50506003805460ff191690555050600160045550506001600160a01b03851661012f57604051639fabe1c160e01b815260040160405180910390fd5b6001600160a01b03841661015657604051639fabe1c160e01b815260040160405180910390fd5b6001600160a01b03831661017d57604051639fabe1c160e01b815260040160405180910390fd5b50506001600160a01b0392831660a05290821660c0521660e05261026d565b600080546001600160a01b038381166001600160a01b0319831681178455604051919092169283917f8be0079c531659141344cd1fd0a4f28419497f9722a3daafe3b4186f6b6457e09190a35050565b80516001600160a01b038116811461020357600080fd5b919050565b600080600080600060a0868803121561022057600080fd5b610229866101ec565b9450610237602087016101ec565b9350610245604087016101ec565b9250610253606087016101ec565b9150610261608087016101ec565b90509295509295909350565b60805160a05160c05160e0516123d96103016000396000818161031b015281816108490152818161090101528181611039015261110001526000818161027e0152818161087a01528181610cec01528181610f920152611068015260008181610437015281816108050152610cb701526000818161034f0152818161057601528181610bf20152610ea201526123d96000f3fe60806040526004361061019a5760003560e01c806382413eac116100e1578063b98bd0701161008a578063ca5eb5e111610064578063ca5eb5e1146104f4578063df1c272914610514578063f2fde38b14610534578063ff7bd03d1461055457600080fd5b8063b98bd07014610479578063bb0b6a5314610499578063bc70b354146104d457600080fd5b80638da5cb5b116100bb5780638da5cb5b14610407578063a00e07c414610425578063b72952ee1461045957600080fd5b806382413eac146103bf5780638456cb59146103df5780638afc0d3b146103f457600080fd5b80635535d461116101435780635e280f111161011d5780635e280f111461033d578063715018a6146103715780637d25a05e1461038657600080fd5b80635535d461146102b85780635c975abb146102e55780635d19b0d11461030957600080fd5b80633400288b116101745780633400288b146102375780633f4ba83a146102575780635502c73b1461026c57600080fd5b806313137d65146101a657806317442b70146101bb57806324fd4c05146101e257600080fd5b366101a157005b600080fd5b6101b96101b43660046117d9565b610574565b005b3480156101c757600080fd5b50604080516000815260026020820152015b60405180910390f35b3480156101ee57600080fd5b506102026101fd366004611878565b610666565b604080516001600160a01b039095168552602085019390935263ffffffff9091169183019190915260608201526080016101d9565b34801561024357600080fd5b506101b96102523660046118cc565b61069a565b34801561026357600080fd5b506101b96106b0565b34801561027857600080fd5b506102a07f000000000000000000000000000000000000000000000000000000000000000081565b6040516001600160a01b0390911681526020016101d9565b3480156102c457600080fd5b506102d86102d336600461190a565b6106c2565b6040516101d9919061198f565b3480156102f157600080fd5b5060035460ff165b60405190151581526020016101d9565b34801561031557600080fd5b506102a07f000000000000000000000000000000000000000000000000000000000000000081565b34801561034957600080fd5b506102a07f000000000000000000000000000000000000000000000000000000000000000081565b34801561037d57600080fd5b506101b9610767565b34801561039257600080fd5b506103a66103a13660046118cc565b610779565b60405167ffffffffffffffff90911681526020016101d9565b3480156103cb57600080fd5b506102f96103da3660046119a9565b610782565b3480156103eb57600080fd5b506101b9610797565b6101b9610402366004611a0f565b6107a7565b34801561041357600080fd5b506000546001600160a01b03166102a0565b34801561043157600080fd5b506102a07f000000000000000000000000000000000000000000000000000000000000000081565b34801561046557600080fd5b506101b9610474366004611a6e565b61098c565b34801561048557600080fd5b506101b9610494366004611a8a565b6109f0565b3480156104a557600080fd5b506104c66104b4366004611aff565b60016020526000908152604090205481565b6040519081526020016101d9565b3480156104e057600080fd5b506102d86104ef366004611b1c565b610a0a565b34801561050057600080fd5b506101b961050f366004611b7f565b610bb2565b34801561052057600080fd5b506101b961052f366004611b9a565b610c51565b34801561054057600080fd5b506101b961054f366004611b7f565b610d1d565b34801561056057600080fd5b506102f961056f366004611bbd565b610d74565b7f00000000000000000000000000000000000000000000000000000000000000006001600160a01b031633146105dd576040517f91ac5e4f0000000000000000000000000000000000000000000000000000000081523360048201526024015b60405180910390fd5b602087018035906105f7906105f2908a611aff565b610daa565b1461064e576106096020880188611aff565b6040517fc26bebcc00000000000000000000000000000000000000000000000000000000815263ffffffff9091166004820152602088013560248201526044016105d4565b61065d87878787878787610dff565b50505050505050565b60008080808080808061067b898b018b611bd9565b935093509350935061068a8490565b9a92995090975095509350505050565b6106a261118d565b6106ac82826111d3565b5050565b6106b861118d565b6106c0611228565b565b6002602090815260009283526040808420909152908252902080546106e690611c18565b80601f016020809104026020016040519081016040528092919081815260200182805461071290611c18565b801561075f5780601f106107345761010080835404028352916020019161075f565b820191906000526020600020905b81548152906001019060200180831161074257829003601f168201915b505050505081565b61076f61118d565b6106c0600061127a565b60005b92915050565b6001600160a01b03811630145b949350505050565b61079f61118d565b6106c06112e2565b6107af61131f565b6107b761135c565b7fa99346fe26352079fd1ef7b9d9fe67cfa784267a782cf56b6437d7fbc1aac53333602084013584846040516107f09493929190611d63565b60405180910390a16108316001600160a01b037f0000000000000000000000000000000000000000000000000000000000000000163330604086013561139f565b6040805163095ea7b360e01b81526001600160a01b037f0000000000000000000000000000000000000000000000000000000000000000811660048301529184013560248201527f00000000000000000000000000000000000000000000000000000000000000009091169063095ea7b3906044016020604051808303816000875af11580156108c5573d6000803e3d6000fd5b505050506040513d601f19601f820116820180604052508101906108e99190611dac565b5060405163c7c7f5b360e01b81526001600160a01b037f0000000000000000000000000000000000000000000000000000000000000000169063c7c7f5b39083359061093d90869086903390600401611dce565b60c06040518083038185885af115801561095b573d6000803e3d6000fd5b50505050506040513d601f19601f820116820180604052508101906109809190611ed0565b50506106ac6001600455565b61099461118d565b61099c611421565b60405181815233906001600160a01b038416907f050bfcf56def683ba46089b74b240740900eb3e22309f1a9a50cdad12e7a43b29060200160405180910390a36106ac6001600160a01b038316338361145d565b6109f861118d565b6106ac610a058284611f40565b611493565b63ffffffff8416600090815260026020908152604080832061ffff87168452909152812080546060929190610a3e90611c18565b80601f0160208091040260200160405190810160405280929190818152602001828054610a6a90611c18565b8015610ab75780601f10610a8c57610100808354040283529160200191610ab7565b820191906000526020600020905b815481529060010190602001808311610a9a57829003601f168201915b505050505090508051600003610b075783838080601f01602080910402602001604051908101604052809392919081815260200183838082843760009201919091525092945061078f9350505050565b6000839003610b1757905061078f565b60028310610b9557610b5e84848080601f0160208091040260200160405190810160405280939291908181526020018383808284376000920191909152506115a592505050565b80610b6c8460028188612068565b604051602001610b7e93929190612092565b60405160208183030381529060405291505061078f565b8383604051639a6d49cd60e01b81526004016105d49291906120ba565b610bba61118d565b6040517fca5eb5e10000000000000000000000000000000000000000000000000000000081526001600160a01b0382811660048301527f0000000000000000000000000000000000000000000000000000000000000000169063ca5eb5e190602401600060405180830381600087803b158015610c3657600080fd5b505af1158015610c4a573d6000803e3d6000fd5b5050505050565b610c5961131f565b610c6161135c565b604080513381526001600160a01b03831660208201529081018390527fbb5252b2894a0074f70a195e56c61da7ea6cfb3c340ee8e20021d646ee59096f9060600160405180910390a1610cdf6001600160a01b037f00000000000000000000000000000000000000000000000000000000000000001633308561139f565b610d136001600160a01b037f000000000000000000000000000000000000000000000000000000000000000016828461145d565b6106ac6001600455565b610d2561118d565b6001600160a01b038116610d68576040517f1e4fbdf7000000000000000000000000000000000000000000000000000000008152600060048201526024016105d4565b610d718161127a565b50565b6000602082018035906001908390610d8c9086611aff565b63ffffffff1681526020810191909152604001600020541492915050565b63ffffffff81166000908152600160205260408120548061077c576040517ff6ff4fb700000000000000000000000000000000000000000000000000000000815263ffffffff841660048201526024016105d4565b600080600080610e0f8989610666565b929650909450925090507f1f1b0dd6b79d5ded2d2940f8d747107122f25860b53f46cf78dca361897f76268a610e4860208e018e611aff565b60208e01356040805193845263ffffffff92831660208501526001600160a01b039182169084015290851660608301528616608082015260a0810185905260c0810185905260e00160405180910390a1801580610f3157507f00000000000000000000000000000000000000000000000000000000000000006001600160a01b031663416ecebf6040518163ffffffff1660e01b8152600401602060405180830381865afa158015610efe573d6000803e3d6000fd5b505050506040513d601f19601f82011682018060405250810190610f2291906120ce565b63ffffffff168263ffffffff16145b15610fbe577fbb5252b2894a0074f70a195e56c61da7ea6cfb3c340ee8e20021d646ee59096f60208c0135604080516001600160a01b0392831681529187166020830152810185905260600160405180910390a1610fb96001600160a01b037f000000000000000000000000000000000000000000000000000000000000000016858561145d565b611180565b6000610fce8a8a878787876115d1565b90507fa99346fe26352079fd1ef7b9d9fe67cfa784267a782cf56b6437d7fbc1aac53360208d013560408051808201825234815260006020820152905161101a92918991869190612161565b60405180910390a160405163095ea7b360e01b81526001600160a01b037f000000000000000000000000000000000000000000000000000000000000000081166004830152602482018690527f0000000000000000000000000000000000000000000000000000000000000000169063095ea7b3906044016020604051808303816000875af11580156110b1573d6000803e3d6000fd5b505050506040513d601f19601f820116820180604052508101906110d59190611dac565b506040805180820182523480825260006020830152915163c7c7f5b360e01b81526001600160a01b037f0000000000000000000000000000000000000000000000000000000000000000169263c7c7f5b392909161113991869130906004016121a5565b60c06040518083038185885af1158015611157573d6000803e3d6000fd5b50505050506040513d601f19601f8201168201806040525081019061117c9190611ed0565b5050505b5050505050505050505050565b6000546001600160a01b031633146106c0576040517f118cdaa70000000000000000000000000000000000000000000000000000000081523360048201526024016105d4565b63ffffffff8216600081815260016020908152604091829020849055815192835282018390527f238399d427b947898edb290f5ff0f9109849b1c3ba196a42e35f00c50a54b98b910160405180910390a15050565b611230611421565b6003805460ff191690557f5db9ee0a495bf2e6ff9c91a7834c1ba4fdd244a5e8aa4e537bd38aeae4b073aa335b6040516001600160a01b03909116815260200160405180910390a1565b600080546001600160a01b038381167fffffffffffffffffffffffff0000000000000000000000000000000000000000831681178455604051919092169283917f8be0079c531659141344cd1fd0a4f28419497f9722a3daafe3b4186f6b6457e09190a35050565b6112ea61131f565b6003805460ff191660011790557f62e78cea01bee320cd4e420270b5ea74000d11b0c9f74754ebdbfc544b05a25861125d3390565b60035460ff16156106c0576040517fd93c066500000000000000000000000000000000000000000000000000000000815260040160405180910390fd5b600260045403611398576040517f3ee5aeb500000000000000000000000000000000000000000000000000000000815260040160405180910390fd5b6002600455565b6040516001600160a01b03848116602483015283811660448301526064820183905261141b9186918216906323b872dd906084015b604051602081830303815290604052915060e01b6020820180517bffffffffffffffffffffffffffffffffffffffffffffffffffffffff83818316178352505050506116d2565b50505050565b60035460ff166106c0576040517f8dfc202b00000000000000000000000000000000000000000000000000000000815260040160405180910390fd5b6040516001600160a01b0383811660248301526044820183905261148e91859182169063a9059cbb906064016113d4565b505050565b60005b815181101561156a576114c58282815181106114b4576114b46121d1565b6020026020010151604001516115a5565b8181815181106114d7576114d76121d1565b602002602001015160400151600260008484815181106114f9576114f96121d1565b60200260200101516000015163ffffffff1663ffffffff1681526020019081526020016000206000848481518110611533576115336121d1565b60200260200101516020015161ffff1661ffff16815260200190815260200160002090816115619190612237565b50600101611496565b507fbe4864a8e820971c0247f5992e2da559595f7bf076a21cb5928d443d2a13b6748160405161159a91906122f7565b60405180910390a150565b600281015161ffff81166003146106ac5781604051639a6d49cd60e01b81526004016105d4919061198f565b61161a6040518060e00160405280600063ffffffff1681526020016000801916815260200160008152602001600081526020016060815260200160608152602001606081525090565b60008760c08861162a8683612382565b9261163793929190612068565b8080601f01602080910402602001604051908101604052809392919081815260200183838082843760009201829052506040805160e08101825263ffffffff9a909a168a526001600160a01b039b909b166020808b0191909152898c018b905260608a019a909a52608089019490945250508751808801895282815260a087015250865195860190965250505091815260c082015292915050565b600080602060008451602086016000885af1806116f5576040513d6000823e3d81fd5b50506000513d9150811561170d57806001141561171a565b6001600160a01b0384163b155b1561141b576040517f5274afe70000000000000000000000000000000000000000000000000000000081526001600160a01b03851660048201526024016105d4565b60006060828403121561176e57600080fd5b50919050565b60008083601f84011261178657600080fd5b50813567ffffffffffffffff81111561179e57600080fd5b6020830191508360208285010111156117b657600080fd5b9250929050565b80356001600160a01b03811681146117d457600080fd5b919050565b600080600080600080600060e0888a0312156117f457600080fd5b6117fe898961175c565b965060608801359550608088013567ffffffffffffffff8082111561182257600080fd5b61182e8b838c01611774565b909750955085915061184260a08b016117bd565b945060c08a013591508082111561185857600080fd5b506118658a828b01611774565b989b979a50959850939692959293505050565b6000806020838503121561188b57600080fd5b823567ffffffffffffffff8111156118a257600080fd5b6118ae85828601611774565b90969095509350505050565b63ffffffff81168114610d7157600080fd5b600080604083850312156118df57600080fd5b82356118ea816118ba565b946020939093013593505050565b803561ffff811681146117d457600080fd5b6000806040838503121561191d57600080fd5b8235611928816118ba565b9150611936602084016118f8565b90509250929050565b60005b8381101561195a578181015183820152602001611942565b50506000910152565b6000815180845261197b81602086016020860161193f565b601f01601f19169290920160200192915050565b6020815260006119a26020830184611963565b9392505050565b60008060008060a085870312156119bf57600080fd5b6119c9868661175c565b9350606085013567ffffffffffffffff8111156119e557600080fd5b6119f187828801611774565b9094509250611a049050608086016117bd565b905092959194509250565b6000808284036060811215611a2357600080fd5b833567ffffffffffffffff811115611a3a57600080fd5b840160e08187031215611a4c57600080fd5b92506040601f1982011215611a6057600080fd5b506020830190509250929050565b60008060408385031215611a8157600080fd5b6118ea836117bd565b60008060208385031215611a9d57600080fd5b823567ffffffffffffffff80821115611ab557600080fd5b818501915085601f830112611ac957600080fd5b813581811115611ad857600080fd5b8660208260051b8501011115611aed57600080fd5b60209290920196919550909350505050565b600060208284031215611b1157600080fd5b81356119a2816118ba565b60008060008060608587031215611b3257600080fd5b8435611b3d816118ba565b9350611b4b602086016118f8565b9250604085013567ffffffffffffffff811115611b6757600080fd5b611b7387828801611774565b95989497509550505050565b600060208284031215611b9157600080fd5b6119a2826117bd565b60008060408385031215611bad57600080fd5b82359150611936602084016117bd565b600060608284031215611bcf57600080fd5b6119a2838361175c565b60008060008060808587031215611bef57600080fd5b84359350602085013592506040850135611c08816118ba565b9396929550929360600135925050565b600181811c90821680611c2c57607f821691505b60208210810361176e57634e487b7160e01b600052602260045260246000fd5b6000808335601e19843603018112611c6357600080fd5b830160208101925035905067ffffffffffffffff811115611c8357600080fd5b8036038213156117b657600080fd5b81835281816020850137506000828201602090810191909152601f909101601f19169091010190565b60008135611cc8816118ba565b63ffffffff8116845250602082013560208401526040820135604084015260608201356060840152611cfd6080830183611c4c565b60e06080860152611d1260e086018284611c92565b915050611d2260a0840184611c4c565b85830360a0870152611d35838284611c92565b92505050611d4660c0840184611c4c565b85830360c0870152611d59838284611c92565b9695505050505050565b60006001600160a01b03808716835280861660208401525060a06040830152611d8f60a0830185611cbb565b833560608401526020840135608084015290505b95945050505050565b600060208284031215611dbe57600080fd5b815180151581146119a257600080fd5b608081526000611de16080830186611cbb565b9050611dfa602083018580358252602090810135910152565b6001600160a01b0383166060830152949350505050565b634e487b7160e01b600052604160045260246000fd5b6040516060810167ffffffffffffffff81118282101715611e4a57611e4a611e11565b60405290565b604051601f8201601f1916810167ffffffffffffffff81118282101715611e7957611e79611e11565b604052919050565b600060408284031215611e9357600080fd5b6040516040810181811067ffffffffffffffff82111715611eb657611eb6611e11565b604052825181526020928301519281019290925250919050565b60008082840360c0811215611ee457600080fd5b6080811215611ef257600080fd5b50611efb611e27565b83518152602084015167ffffffffffffffff81168114611f1a57600080fd5b6020820152611f2c8560408601611e81565b604082015291506119368460808501611e81565b600067ffffffffffffffff80841115611f5b57611f5b611e11565b8360051b6020611f6c818301611e50565b868152918501918181019036841115611f8457600080fd5b865b8481101561205c57803586811115611f9e5760008081fd5b88016060368290031215611fb25760008081fd5b611fba611e27565b8135611fc5816118ba565b8152611fd28287016118f8565b8682015260408083013589811115611fea5760008081fd5b9290920191601f36818501126120005760008081fd5b83358a81111561201257612012611e11565b612023818301601f19168a01611e50565b9150808252368982870101111561203a5760008081fd5b808986018a840137600090820189015290820152845250918301918301611f86565b50979650505050505050565b6000808585111561207857600080fd5b8386111561208557600080fd5b5050820193919092039150565b600084516120a481846020890161193f565b8201838582376000930192835250909392505050565b60208152600061078f602083018486611c92565b6000602082840312156120e057600080fd5b81516119a2816118ba565b63ffffffff81511682526020810151602083015260408101516040830152606081015160608301526000608082015160e0608085015261212e60e0850182611963565b905060a083015184820360a08601526121478282611963565b91505060c083015184820360c0860152611da38282611963565b60006001600160a01b03808716835280861660208401525060a0604083015261218d60a08301856120eb565b83516060840152602084015160808401529050611da3565b6080815260006121b860808301866120eb565b9050611dfa602083018580518252602090810151910152565b634e487b7160e01b600052603260045260246000fd5b601f82111561148e576000816000526020600020601f850160051c810160208610156122105750805b601f850160051c820191505b8181101561222f5782815560010161221c565b505050505050565b815167ffffffffffffffff81111561225157612251611e11565b6122658161225f8454611c18565b846121e7565b602080601f83116001811461229a57600084156122825750858301515b600019600386901b1c1916600185901b17855561222f565b600085815260208120601f198616915b828110156122c9578886015182559484019460019091019084016122aa565b50858210156122e75787850151600019600388901b60f8161c191681555b5050505050600190811b01905550565b600060208083018184528085518083526040925060408601915060408160051b87010184880160005b8381101561237457888303603f190185528151805163ffffffff1684528781015161ffff1688850152860151606087850181905261236081860183611963565b968901969450505090860190600101612320565b509098975050505050505050565b8082018082111561077c57634e487b7160e01b600052601160045260246000fdfea2646970667358221220699ffca079077f1204da792e9eb6e9a0f9fb0bc0af15b7d0b8abcf7b1f33e62d64736f6c63430008190033",
  "linkReferences": {},
  "deployedLinkReferences": {}
}