{
  "_format": "hh-sol-artifact-1",
  "contractName": "PeripheralMigrationContract",
  "sourceName": "contracts/peripheral/PeripheralMigrationContract.sol",
  "abi": [
    {
      "inputs": [
        {
          "internalType": "address",
          "name": "_mimo",
          "type": "address"
        },
        {
          "internalType": "address",
          "name": "_endpoint",
          "type": "address"
        },
        {
          "internalType": "address",
          "name": "_owner",
          "type": "address"
        },
        {
          "internalType": "uint32",
          "name": "_mainEid",
          "type": "uint32"
        }
      ],
      "stateMutability": "nonpayable",
      "type": "constructor"
    },
    {
      "inputs": [],
      "name": "AddressZero",
      "type": "error"
    },
    {
      "inputs": [],
      "name": "EnforcedPause",
      "type": "error"
    },
    {
      "inputs": [],
      "name": "ExpectedPause",
      "type": "error"
    },
    {
      "inputs": [],
      "name": "InvalidDelegate",
      "type": "error"
    },
    {
      "inputs": [],
      "name": "InvalidEndpointCall",
      "type": "error"
    },
    {
      "inputs": [
        {
          "internalType": "bytes",
          "name": "options",
          "type": "bytes"
        }
      ],
      "name": "InvalidOptions",
      "type": "error"
    },
    {
      "inputs": [],
      "name": "LzTokenUnavailable",
      "type": "error"
    },
    {
      "inputs": [
        {
          "internalType": "uint32",
          "name": "eid",
          "type": "uint32"
        }
      ],
      "name": "NoPeer",
      "type": "error"
    },
    {
      "inputs": [
        {
          "internalType": "uint256",
          "name": "msgValue",
          "type": "uint256"
        }
      ],
      "name": "NotEnoughNative",
      "type": "error"
    },
    {
      "inputs": [
        {
          "internalType": "uint32",
          "name": "eid",
          "type": "uint32"
        },
        {
          "internalType": "bytes32",
          "name": "sender",
          "type": "bytes32"
        }
      ],
      "name": "OnlyPeer",
      "type": "error"
    },
    {
      "inputs": [
        {
          "internalType": "address",
          "name": "owner",
          "type": "address"
        }
      ],
      "name": "OwnableInvalidOwner",
      "type": "error"
    },
    {
      "inputs": [
        {
          "internalType": "address",
          "name": "account",
          "type": "address"
        }
      ],
      "name": "OwnableUnauthorizedAccount",
      "type": "error"
    },
    {
      "inputs": [
        {
          "internalType": "address",
          "name": "token",
          "type": "address"
        }
      ],
      "name": "SafeERC20FailedOperation",
      "type": "error"
    },
    {
      "anonymous": false,
      "inputs": [
        {
          "indexed": true,
          "internalType": "address",
          "name": "token",
          "type": "address"
        },
        {
          "indexed": false,
          "internalType": "uint256",
          "name": "amount",
          "type": "uint256"
        },
        {
          "indexed": true,
          "internalType": "address",
          "name": "recipient",
          "type": "address"
        }
      ],
      "name": "EmergencyRescued",
      "type": "event"
    },
    {
      "anonymous": false,
      "inputs": [
        {
          "components": [
            {
              "internalType": "uint32",
              "name": "eid",
              "type": "uint32"
            },
            {
              "internalType": "uint16",
              "name": "msgType",
              "type": "uint16"
            },
            {
              "internalType": "bytes",
              "name": "options",
              "type": "bytes"
            }
          ],
          "indexed": false,
          "internalType": "struct EnforcedOptionParam[]",
          "name": "_enforcedOptions",
          "type": "tuple[]"
        }
      ],
      "name": "EnforcedOptionSet",
      "type": "event"
    },
    {
      "anonymous": false,
      "inputs": [
        {
          "indexed": false,
          "internalType": "bytes32",
          "name": "guid",
          "type": "bytes32"
        },
        {
          "indexed": false,
          "internalType": "uint32",
          "name": "dstEid",
          "type": "uint32"
        },
        {
          "indexed": false,
          "internalType": "address",
          "name": "from",
          "type": "address"
        },
        {
          "indexed": false,
          "internalType": "address",
          "name": "to",
          "type": "address"
        },
        {
          "indexed": false,
          "internalType": "uint256",
          "name": "nativeFeeAmount",
          "type": "uint256"
        },
        {
          "indexed": false,
          "internalType": "uint256",
          "name": "amountSent",
          "type": "uint256"
        }
      ],
      "name": "MigrationMessageSent",
      "type": "event"
    },
    {
      "anonymous": false,
      "inputs": [
        {
          "indexed": true,
          "internalType": "address",
          "name": "previousOwner",
          "type": "address"
        },
        {
          "indexed": true,
          "internalType": "address",
          "name": "newOwner",
          "type": "address"
        }
      ],
      "name": "OwnershipTransferred",
      "type": "event"
    },
    {
      "anonymous": false,
      "inputs": [
        {
          "indexed": false,
          "internalType": "address",
          "name": "account",
          "type": "address"
        }
      ],
      "name": "Paused",
      "type": "event"
    },
    {
      "anonymous": false,
      "inputs": [
        {
          "indexed": false,
          "internalType": "uint32",
          "name": "eid",
          "type": "uint32"
        },
        {
          "indexed": false,
          "internalType": "bytes32",
          "name": "peer",
          "type": "bytes32"
        }
      ],
      "name": "PeerSet",
      "type": "event"
    },
    {
      "anonymous": false,
      "inputs": [
        {
          "indexed": false,
          "internalType": "address",
          "name": "account",
          "type": "address"
        }
      ],
      "name": "Unpaused",
      "type": "event"
    },
    {
      "inputs": [],
      "name": "MIMO",
      "outputs": [
        {
          "internalType": "contract IERC20",
          "name": "",
          "type": "address"
        }
      ],
      "stateMutability": "view",
      "type": "function"
    },
    {
      "inputs": [],
      "name": "SEND",
      "outputs": [
        {
          "internalType": "uint16",
          "name": "",
          "type": "uint16"
        }
      ],
      "stateMutability": "view",
      "type": "function"
    },
    {
      "inputs": [],
      "name": "SEND_AND_MIGRATE",
      "outputs": [
        {
          "internalType": "uint16",
          "name": "",
          "type": "uint16"
        }
      ],
      "stateMutability": "view",
      "type": "function"
    },
    {
      "inputs": [
        {
          "internalType": "uint32",
          "name": "_eid",
          "type": "uint32"
        },
        {
          "internalType": "uint16",
          "name": "_msgType",
          "type": "uint16"
        },
        {
          "internalType": "bytes",
          "name": "_extraOptions",
          "type": "bytes"
        }
      ],
      "name": "combineOptions",
      "outputs": [
        {
          "internalType": "bytes",
          "name": "",
          "type": "bytes"
        }
      ],
      "stateMutability": "view",
      "type": "function"
    },
    {
      "inputs": [
        {
          "internalType": "address",
          "name": "_token",
          "type": "address"
        },
        {
          "internalType": "uint256",
          "name": "_amount",
          "type": "uint256"
        }
      ],
      "name": "emergencyRescue",
      "outputs": [],
      "stateMutability": "nonpayable",
      "type": "function"
    },
    {
      "inputs": [],
      "name": "endpoint",
      "outputs": [
        {
          "internalType": "contract ILayerZeroEndpointV2",
          "name": "",
          "type": "address"
        }
      ],
      "stateMutability": "view",
      "type": "function"
    },
    {
      "inputs": [
        {
          "internalType": "uint32",
          "name": "eid",
          "type": "uint32"
        },
        {
          "internalType": "uint16",
          "name": "msgType",
          "type": "uint16"
        }
      ],
      "name": "enforcedOptions",
      "outputs": [
        {
          "internalType": "bytes",
          "name": "enforcedOption",
          "type": "bytes"
        }
      ],
      "stateMutability": "view",
      "type": "function"
    },
    {
      "inputs": [],
      "name": "mainEid",
      "outputs": [
        {
          "internalType": "uint32",
          "name": "",
          "type": "uint32"
        }
      ],
      "stateMutability": "view",
      "type": "function"
    },
    {
      "inputs": [
        {
          "internalType": "address",
          "name": "_receiver",
          "type": "address"
        },
        {
          "internalType": "uint256",
          "name": "_amount",
          "type": "uint256"
        },
        {
          "internalType": "uint32",
          "name": "_dstEid",
          "type": "uint32"
        },
        {
          "internalType": "bytes",
          "name": "_extraSendOptions",
          "type": "bytes"
        },
        {
          "internalType": "bytes",
          "name": "_extraReturnOptions",
          "type": "bytes"
        }
      ],
      "name": "migrateToPRL",
      "outputs": [
        {
          "components": [
            {
              "internalType": "bytes32",
              "name": "guid",
              "type": "bytes32"
            },
            {
              "internalType": "uint64",
              "name": "nonce",
              "type": "uint64"
            },
            {
              "components": [
                {
                  "internalType": "uint256",
                  "name": "nativeFee",
                  "type": "uint256"
                },
                {
                  "internalType": "uint256",
                  "name": "lzTokenFee",
                  "type": "uint256"
                }
              ],
              "internalType": "struct MessagingFee",
              "name": "fee",
              "type": "tuple"
            }
          ],
          "internalType": "struct MessagingReceipt",
          "name": "msgReceipt",
          "type": "tuple"
        }
      ],
      "stateMutability": "payable",
      "type": "function"
    },
    {
      "inputs": [],
      "name": "oAppVersion",
      "outputs": [
        {
          "internalType": "uint64",
          "name": "senderVersion",
          "type": "uint64"
        },
        {
          "internalType": "uint64",
          "name": "receiverVersion",
          "type": "uint64"
        }
      ],
      "stateMutability": "view",
      "type": "function"
    },
    {
      "inputs": [],
      "name": "owner",
      "outputs": [
        {
          "internalType": "address",
          "name": "",
          "type": "address"
        }
      ],
      "stateMutability": "view",
      "type": "function"
    },
    {
      "inputs": [],
      "name": "pause",
      "outputs": [],
      "stateMutability": "nonpayable",
      "type": "function"
    },
    {
      "inputs": [],
      "name": "paused",
      "outputs": [
        {
          "internalType": "bool",
          "name": "",
          "type": "bool"
        }
      ],
      "stateMutability": "view",
      "type": "function"
    },
    {
      "inputs": [
        {
          "internalType": "uint32",
          "name": "eid",
          "type": "uint32"
        }
      ],
      "name": "peers",
      "outputs": [
        {
          "internalType": "bytes32",
          "name": "peer",
          "type": "bytes32"
        }
      ],
      "stateMutability": "view",
      "type": "function"
    },
    {
      "inputs": [
        {
          "internalType": "uint32",
          "name": "_dstEid",
          "type": "uint32"
        },
        {
          "internalType": "address",
          "name": "_receiver",
          "type": "address"
        },
        {
          "internalType": "uint256",
          "name": "_amount",
          "type": "uint256"
        },
        {
          "internalType": "bytes",
          "name": "_extraSendOptions",
          "type": "bytes"
        },
        {
          "internalType": "bytes",
          "name": "_extraReturnOptions",
          "type": "bytes"
        }
      ],
      "name": "quote",
      "outputs": [
        {
          "components": [
            {
              "internalType": "uint256",
              "name": "nativeFee",
              "type": "uint256"
            },
            {
              "internalType": "uint256",
              "name": "lzTokenFee",
              "type": "uint256"
            }
          ],
          "internalType": "struct MessagingFee",
          "name": "fee",
          "type": "tuple"
        }
      ],
      "stateMutability": "view",
      "type": "function"
    },
    {
      "inputs": [],
      "name": "renounceOwnership",
      "outputs": [],
      "stateMutability": "nonpayable",
      "type": "function"
    },
    {
      "inputs": [
        {
          "internalType": "address",
          "name": "_delegate",
          "type": "address"
        }
      ],
      "name": "setDelegate",
      "outputs": [],
      "stateMutability": "nonpayable",
      "type": "function"
    },
    {
      "inputs": [
        {
          "components": [
            {
              "internalType": "uint32",
              "name": "eid",
              "type": "uint32"
            },
            {
              "internalType": "uint16",
              "name": "msgType",
              "type": "uint16"
            },
            {
              "internalType": "bytes",
              "name": "options",
              "type": "bytes"
            }
          ],
          "internalType": "struct EnforcedOptionParam[]",
          "name": "_enforcedOptions",
          "type": "tuple[]"
        }
      ],
      "name": "setEnforcedOptions",
      "outputs": [],
      "stateMutability": "nonpayable",
      "type": "function"
    },
    {
      "inputs": [
        {
          "internalType": "uint32",
          "name": "_eid",
          "type": "uint32"
        },
        {
          "internalType": "bytes32",
          "name": "_peer",
          "type": "bytes32"
        }
      ],
      "name": "setPeer",
      "outputs": [],
      "stateMutability": "nonpayable",
      "type": "function"
    },
    {
      "inputs": [
        {
          "internalType": "address",
          "name": "newOwner",
          "type": "address"
        }
      ],
      "name": "transferOwnership",
      "outputs": [],
      "stateMutability": "nonpayable",
      "type": "function"
    },
    {
      "inputs": [],
      "name": "unpause",
      "outputs": [],
      "stateMutability": "nonpayable",
      "type": "function"
    }
  ],
  "bytecode": "0x60e060405234801561001057600080fd5b50604051611f68380380611f6883398101604081905261002f916101b4565b8282806001600160a01b03811661006057604051631e4fbdf760e01b81526000600482015260240160405180910390fd5b61006981610148565b506001600160a01b03808316608052811661009757604051632d618d8160e21b815260040160405180910390fd5b60805160405163ca5eb5e160e01b81526001600160a01b0383811660048301529091169063ca5eb5e190602401600060405180830381600087803b1580156100de57600080fd5b505af11580156100f2573d6000803e3d6000fd5b50506003805460ff191690555050506001600160a01b038516905061012a57604051639fabe1c160e01b815260040160405180910390fd5b6001600160a01b0390931660a052505063ffffffff1660c052610213565b600080546001600160a01b038381166001600160a01b0319831681178455604051919092169283917f8be0079c531659141344cd1fd0a4f28419497f9722a3daafe3b4186f6b6457e09190a35050565b80516001600160a01b03811681146101af57600080fd5b919050565b600080600080608085870312156101ca57600080fd5b6101d385610198565b93506101e160208601610198565b92506101ef60408601610198565b9150606085015163ffffffff8116811461020857600080fd5b939692955090935050565b60805160a05160c051611ce7610281600039600081816103810152818161056101528181610664015261069601526000818161034d01526105340152600081816102b901528181610a0e01528181610bf701528181610d80015281816111c101526112930152611ce76000f3fe60806040526004361061016a5760003560e01c8063715018a6116100cb578063b72952ee1161007f578063bc70b35411610059578063bc70b35414610433578063ca5eb5e114610453578063f2fde38b1461047357600080fd5b8063b72952ee146103b8578063b98bd070146103d8578063bb0b6a53146103f857600080fd5b80638da5cb5b116100b05780638da5cb5b1461031d578063a00e07c41461033b578063b67d54331461036f57600080fd5b8063715018a6146102f35780638456cb591461030857600080fd5b80633f4ba83a116101225780635535d461116101075780635535d461146102575780635c975abb146102845780635e280f11146102a757600080fd5b80633f4ba83a1461022d578063405ba5431461024257600080fd5b8063320e2ebf11610153578063320e2ebf146101be5780633400288b146101de578063361f09071461020057600080fd5b806317442b701461016f5780631f5e133414610196575b600080fd5b34801561017b57600080fd5b50604080516001815260006020820152015b60405180910390f35b3480156101a257600080fd5b506101ab600181565b60405161ffff909116815260200161018d565b6101d16101cc3660046113d2565b610493565b60405161018d919061146f565b3480156101ea57600080fd5b506101fe6101f93660046114b2565b6105ed565b005b34801561020c57600080fd5b5061022061021b3660046114dc565b610603565b60405161018d9190611534565b34801561023957600080fd5b506101fe6106be565b34801561024e57600080fd5b506101ab600281565b34801561026357600080fd5b5061027761027236600461155d565b6106d0565b60405161018d91906115e0565b34801561029057600080fd5b5060035460ff16604051901515815260200161018d565b3480156102b357600080fd5b506102db7f000000000000000000000000000000000000000000000000000000000000000081565b6040516001600160a01b03909116815260200161018d565b3480156102ff57600080fd5b506101fe610775565b34801561031457600080fd5b506101fe610787565b34801561032957600080fd5b506000546001600160a01b03166102db565b34801561034757600080fd5b506102db7f000000000000000000000000000000000000000000000000000000000000000081565b34801561037b57600080fd5b506103a37f000000000000000000000000000000000000000000000000000000000000000081565b60405163ffffffff909116815260200161018d565b3480156103c457600080fd5b506101fe6103d33660046115fa565b610797565b3480156103e457600080fd5b506101fe6103f3366004611618565b6107fb565b34801561040457600080fd5b5061042561041336600461168d565b60016020526000908152604090205481565b60405190815260200161018d565b34801561043f57600080fd5b5061027761044e3660046116a8565b610815565b34801561045f57600080fd5b506101fe61046e366004611709565b6109ce565b34801561047f57600080fd5b506101fe61048e366004611709565b610a6d565b61049b611313565b6104a3610ac4565b3460006104c088876104b65760016104b9565b60025b8989610815565b83516040805191825263ffffffff8b16602083015233908201526001600160a01b038c1660608201526080810184905260a081018b90529091507f3dd5b9e3159a840b8859b5bbb8860ecf1552297aa737e97a44bf51d3c927a32b9060c00160405180910390a161055c6001600160a01b037f00000000000000000000000000000000000000000000000000000000000000001633308c610b01565b6105df7f00000000000000000000000000000000000000000000000000000000000000006105c28c8c8c8a8a8080601f016020809104026020016040519081016040528093929190818152602001838380828437600092019190915250610b8392505050565b836040518060400160405280348152602001600081525033610bc4565b9a9950505050505050505050565b6105f5610ccf565b6105ff8282610d15565b5050565b6040805180820190915260008082526020820152600061065b88888b87878080601f016020809104026020016040519081016040528093929190818152602001838380828437600092019190915250610b8392505050565b9050600061068f7f0000000000000000000000000000000000000000000000000000000000000000876104b65760016104b9565b90506105df7f000000000000000000000000000000000000000000000000000000000000000083836000610d6a565b6106c6610ccf565b6106ce610e4b565b565b6002602090815260009283526040808420909152908252902080546106f490611726565b80601f016020809104026020016040519081016040528092919081815260200182805461072090611726565b801561076d5780601f106107425761010080835404028352916020019161076d565b820191906000526020600020905b81548152906001019060200180831161075057829003601f168201915b505050505081565b61077d610ccf565b6106ce6000610e9d565b61078f610ccf565b6106ce610f05565b61079f610ccf565b6107a7610f42565b60405181815233906001600160a01b038416907f050bfcf56def683ba46089b74b240740900eb3e22309f1a9a50cdad12e7a43b29060200160405180910390a36105ff6001600160a01b0383163383610f7e565b610803610ccf565b6105ff61081082846117d0565b610fb4565b63ffffffff8416600090815260026020908152604080832061ffff8716845290915281208054606092919061084990611726565b80601f016020809104026020016040519081016040528092919081815260200182805461087590611726565b80156108c25780601f10610897576101008083540402835291602001916108c2565b820191906000526020600020905b8154815290600101906020018083116108a557829003601f168201915b5050505050905080516000036109125783838080601f0160208091040260200160405190810160405280939291908181526020018383808284376000920191909152509294506109c69350505050565b60008390036109225790506109c6565b600283106109a05761096984848080601f0160208091040260200160405190810160405280939291908181526020018383808284376000920191909152506110c692505050565b8061097784600281886118f6565b60405160200161098993929190611920565b6040516020818303038152906040529150506109c6565b8383604051639a6d49cd60e01b81526004016109bd929190611948565b60405180910390fd5b949350505050565b6109d6610ccf565b6040517fca5eb5e10000000000000000000000000000000000000000000000000000000081526001600160a01b0382811660048301527f0000000000000000000000000000000000000000000000000000000000000000169063ca5eb5e190602401600060405180830381600087803b158015610a5257600080fd5b505af1158015610a66573d6000803e3d6000fd5b5050505050565b610a75610ccf565b6001600160a01b038116610ab8576040517f1e4fbdf7000000000000000000000000000000000000000000000000000000008152600060048201526024016109bd565b610ac181610e9d565b50565b60035460ff16156106ce576040517fd93c066500000000000000000000000000000000000000000000000000000000815260040160405180910390fd5b6040516001600160a01b038481166024830152838116604483015260648201839052610b7d9186918216906323b872dd906084015b604051602081830303815290604052915060e01b6020820180517bffffffffffffffffffffffffffffffffffffffffffffffffffffffff83818316178352505050506110f2565b50505050565b80516060906001600160a01b03861685858386604051602001610baa959493929190611977565b604051602081830303815290604052915050949350505050565b610bcc611313565b6000610bdb846000015161117c565b602085015190915015610bf557610bf584602001516111bd565b7f00000000000000000000000000000000000000000000000000000000000000006001600160a01b0316632637a450826040518060a001604052808b63ffffffff168152602001610c458c6112b8565b81526020018a815260200189815260200160008960200151111515815250866040518463ffffffff1660e01b8152600401610c819291906119a8565b60806040518083038185885af1158015610c9f573d6000803e3d6000fd5b50505050506040513d601f19601f82011682018060405250810190610cc49190611a70565b979650505050505050565b6000546001600160a01b031633146106ce576040517f118cdaa70000000000000000000000000000000000000000000000000000000081523360048201526024016109bd565b63ffffffff8216600081815260016020908152604091829020849055815192835282018390527f238399d427b947898edb290f5ff0f9109849b1c3ba196a42e35f00c50a54b98b910160405180910390a15050565b60408051808201909152600080825260208201527f00000000000000000000000000000000000000000000000000000000000000006001600160a01b031663ddc28c586040518060a001604052808863ffffffff168152602001610dcd896112b8565b8152602001878152602001868152602001851515815250306040518363ffffffff1660e01b8152600401610e029291906119a8565b6040805180830381865afa158015610e1e573d6000803e3d6000fd5b505050506040513d601f19601f82011682018060405250810190610e429190611ac7565b95945050505050565b610e53610f42565b6003805460ff191690557f5db9ee0a495bf2e6ff9c91a7834c1ba4fdd244a5e8aa4e537bd38aeae4b073aa335b6040516001600160a01b03909116815260200160405180910390a1565b600080546001600160a01b038381167fffffffffffffffffffffffff0000000000000000000000000000000000000000831681178455604051919092169283917f8be0079c531659141344cd1fd0a4f28419497f9722a3daafe3b4186f6b6457e09190a35050565b610f0d610ac4565b6003805460ff191660011790557f62e78cea01bee320cd4e420270b5ea74000d11b0c9f74754ebdbfc544b05a258610e803390565b60035460ff166106ce576040517f8dfc202b00000000000000000000000000000000000000000000000000000000815260040160405180910390fd5b6040516001600160a01b03838116602483015260448201839052610faf91859182169063a9059cbb90606401610b36565b505050565b60005b815181101561108b57610fe6828281518110610fd557610fd5611ae3565b6020026020010151604001516110c6565b818181518110610ff857610ff8611ae3565b6020026020010151604001516002600084848151811061101a5761101a611ae3565b60200260200101516000015163ffffffff1663ffffffff168152602001908152602001600020600084848151811061105457611054611ae3565b60200260200101516020015161ffff1661ffff16815260200190815260200160002090816110829190611b49565b50600101610fb7565b507fbe4864a8e820971c0247f5992e2da559595f7bf076a21cb5928d443d2a13b674816040516110bb9190611c09565b60405180910390a150565b600281015161ffff81166003146105ff5781604051639a6d49cd60e01b81526004016109bd91906115e0565b600080602060008451602086016000885af180611115576040513d6000823e3d81fd5b50506000513d9150811561112d57806001141561113a565b6001600160a01b0384163b155b15610b7d576040517f5274afe70000000000000000000000000000000000000000000000000000000081526001600160a01b03851660048201526024016109bd565b60008134146111b9576040517f9f7041200000000000000000000000000000000000000000000000000000000081523460048201526024016109bd565b5090565b60007f00000000000000000000000000000000000000000000000000000000000000006001600160a01b031663e4fe1d946040518163ffffffff1660e01b8152600401602060405180830381865afa15801561121d573d6000803e3d6000fd5b505050506040513d601f19601f820116820180604052508101906112419190611c94565b90506001600160a01b038116611283576040517f5373352a00000000000000000000000000000000000000000000000000000000815260040160405180910390fd5b6105ff6001600160a01b038216337f000000000000000000000000000000000000000000000000000000000000000085610b01565b63ffffffff81166000908152600160205260408120548061130d576040517ff6ff4fb700000000000000000000000000000000000000000000000000000000815263ffffffff841660048201526024016109bd565b92915050565b604051806060016040528060008019168152602001600067ffffffffffffffff168152602001611356604051806040016040528060008152602001600081525090565b905290565b6001600160a01b0381168114610ac157600080fd5b803563ffffffff8116811461138457600080fd5b919050565b60008083601f84011261139b57600080fd5b50813567ffffffffffffffff8111156113b357600080fd5b6020830191508360208285010111156113cb57600080fd5b9250929050565b600080600080600080600060a0888a0312156113ed57600080fd5b87356113f88161135b565b96506020880135955061140d60408901611370565b9450606088013567ffffffffffffffff8082111561142a57600080fd5b6114368b838c01611389565b909650945060808a013591508082111561144f57600080fd5b5061145c8a828b01611389565b989b979a50959850939692959293505050565b60006080820190508251825267ffffffffffffffff602084015116602083015260408301516114ab604084018280518252602090810151910152565b5092915050565b600080604083850312156114c557600080fd5b6114ce83611370565b946020939093013593505050565b600080600080600080600060a0888a0312156114f757600080fd5b61150088611370565b965060208801356115108161135b565b955060408801359450606088013567ffffffffffffffff8082111561142a57600080fd5b81518152602080830151908201526040810161130d565b803561ffff8116811461138457600080fd5b6000806040838503121561157057600080fd5b61157983611370565b91506115876020840161154b565b90509250929050565b60005b838110156115ab578181015183820152602001611593565b50506000910152565b600081518084526115cc816020860160208601611590565b601f01601f19169290920160200192915050565b6020815260006115f360208301846115b4565b9392505050565b6000806040838503121561160d57600080fd5b82356114ce8161135b565b6000806020838503121561162b57600080fd5b823567ffffffffffffffff8082111561164357600080fd5b818501915085601f83011261165757600080fd5b81358181111561166657600080fd5b8660208260051b850101111561167b57600080fd5b60209290920196919550909350505050565b60006020828403121561169f57600080fd5b6115f382611370565b600080600080606085870312156116be57600080fd5b6116c785611370565b93506116d56020860161154b565b9250604085013567ffffffffffffffff8111156116f157600080fd5b6116fd87828801611389565b95989497509550505050565b60006020828403121561171b57600080fd5b81356115f38161135b565b600181811c9082168061173a57607f821691505b60208210810361175a57634e487b7160e01b600052602260045260246000fd5b50919050565b634e487b7160e01b600052604160045260246000fd5b6040516060810167ffffffffffffffff8111828210171561179957611799611760565b60405290565b604051601f8201601f1916810167ffffffffffffffff811182821017156117c8576117c8611760565b604052919050565b600067ffffffffffffffff808411156117eb576117eb611760565b8360051b60206117fc81830161179f565b86815291850191818101903684111561181457600080fd5b865b848110156118ea5780358681111561182e5760008081fd5b880160603682900312156118425760008081fd5b61184a611776565b61185382611370565b815261186086830161154b565b86820152604080830135898111156118785760008081fd5b9290920191601f368185011261188e5760008081fd5b83358a8111156118a0576118a0611760565b6118b1818301601f19168a0161179f565b915080825236898287010111156118c85760008081fd5b808986018a840137600090820189015290820152845250918301918301611816565b50979650505050505050565b6000808585111561190657600080fd5b8386111561191357600080fd5b5050820193919092039150565b60008451611932818460208901611590565b8201838582376000930192835250909392505050565b60208152816020820152818360408301376000818301604090810191909152601f909201601f19160101919050565b85815284602082015263ffffffff8416604082015282606082015260a060808201526000610cc460a08301846115b4565b6040815263ffffffff8351166040820152602083015160608201526000604084015160a060808401526119de60e08401826115b4565b90506060850151603f198483030160a08501526119fb82826115b4565b60809690960151151560c08501525050506001600160a01b039190911660209091015290565b600060408284031215611a3357600080fd5b6040516040810181811067ffffffffffffffff82111715611a5657611a56611760565b604052825181526020928301519281019290925250919050565b600060808284031215611a8257600080fd5b611a8a611776565b82518152602083015167ffffffffffffffff81168114611aa957600080fd5b6020820152611abb8460408501611a21565b60408201529392505050565b600060408284031215611ad957600080fd5b6115f38383611a21565b634e487b7160e01b600052603260045260246000fd5b601f821115610faf576000816000526020600020601f850160051c81016020861015611b225750805b601f850160051c820191505b81811015611b4157828155600101611b2e565b505050505050565b815167ffffffffffffffff811115611b6357611b63611760565b611b7781611b718454611726565b84611af9565b602080601f831160018114611bac5760008415611b945750858301515b600019600386901b1c1916600185901b178555611b41565b600085815260208120601f198616915b82811015611bdb57888601518255948401946001909101908401611bbc565b5085821015611bf95787850151600019600388901b60f8161c191681555b5050505050600190811b01905550565b600060208083018184528085518083526040925060408601915060408160051b87010184880160005b83811015611c8657888303603f190185528151805163ffffffff1684528781015161ffff16888501528601516060878501819052611c72818601836115b4565b968901969450505090860190600101611c32565b509098975050505050505050565b600060208284031215611ca657600080fd5b81516115f38161135b56fea2646970667358221220e4bfdcaf9d21d123031d540fbcbb8d966dbe37f86decfccae290e83e44f9f26064736f6c63430008190033",
  "linkReferences": {},
  "deployedLinkReferences": {}
}