{
  "_format": "hh-sol-artifact-1",
  "contractName": "LockBox",
  "sourceName": "contracts/principal/LockBox.sol",
  "abi": [
    {
      "inputs": [
        {
          "internalType": "address",
          "name": "_prlToken",
          "type": "address"
        },
        {
          "internalType": "address",
          "name": "_endpoint",
          "type": "address"
        },
        {
          "internalType": "address",
          "name": "_owner",
          "type": "address"
        }
      ],
      "stateMutability": "nonpayable",
      "type": "constructor"
    },
    {
      "inputs": [],
      "name": "EnforcedPause",
      "type": "error"
    },
    {
      "inputs": [],
      "name": "ExpectedPause",
      "type": "error"
    },
    {
      "inputs": [],
      "name": "InvalidDelegate",
      "type": "error"
    },
    {
      "inputs": [],
      "name": "InvalidEndpointCall",
      "type": "error"
    },
    {
      "inputs": [
        {
          "internalType": "bytes",
          "name": "options",
          "type": "bytes"
        }
      ],
      "name": "InvalidOptions",
      "type": "error"
    },
    {
      "inputs": [],
      "name": "LzTokenUnavailable",
      "type": "error"
    },
    {
      "inputs": [
        {
          "internalType": "uint32",
          "name": "eid",
          "type": "uint32"
        }
      ],
      "name": "NoPeer",
      "type": "error"
    },
    {
      "inputs": [
        {
          "internalType": "uint256",
          "name": "msgValue",
          "type": "uint256"
        }
      ],
      "name": "NotEnoughNative",
      "type": "error"
    },
    {
      "inputs": [
        {
          "internalType": "address",
          "name": "addr",
          "type": "address"
        }
      ],
      "name": "OnlyEndpoint",
      "type": "error"
    },
    {
      "inputs": [
        {
          "internalType": "uint32",
          "name": "eid",
          "type": "uint32"
        },
        {
          "internalType": "bytes32",
          "name": "sender",
          "type": "bytes32"
        }
      ],
      "name": "OnlyPeer",
      "type": "error"
    },
    {
      "inputs": [],
      "name": "OnlySelf",
      "type": "error"
    },
    {
      "inputs": [
        {
          "internalType": "address",
          "name": "owner",
          "type": "address"
        }
      ],
      "name": "OwnableInvalidOwner",
      "type": "error"
    },
    {
      "inputs": [
        {
          "internalType": "address",
          "name": "account",
          "type": "address"
        }
      ],
      "name": "OwnableUnauthorizedAccount",
      "type": "error"
    },
    {
      "inputs": [
        {
          "internalType": "address",
          "name": "token",
          "type": "address"
        }
      ],
      "name": "SafeERC20FailedOperation",
      "type": "error"
    },
    {
      "inputs": [
        {
          "internalType": "bytes",
          "name": "result",
          "type": "bytes"
        }
      ],
      "name": "SimulationResult",
      "type": "error"
    },
    {
      "inputs": [
        {
          "internalType": "uint256",
          "name": "amount",
          "type": "uint256"
        },
        {
          "internalType": "uint256",
          "name": "minAmount",
          "type": "uint256"
        }
      ],
      "name": "SlippageExceeded",
      "type": "error"
    },
    {
      "anonymous": false,
      "inputs": [
        {
          "components": [
            {
              "internalType": "uint32",
              "name": "eid",
              "type": "uint32"
            },
            {
              "internalType": "uint16",
              "name": "msgType",
              "type": "uint16"
            },
            {
              "internalType": "bytes",
              "name": "options",
              "type": "bytes"
            }
          ],
          "indexed": false,
          "internalType": "struct EnforcedOptionParam[]",
          "name": "_enforcedOptions",
          "type": "tuple[]"
        }
      ],
      "name": "EnforcedOptionSet",
      "type": "event"
    },
    {
      "anonymous": false,
      "inputs": [
        {
          "indexed": false,
          "internalType": "address",
          "name": "inspector",
          "type": "address"
        }
      ],
      "name": "MsgInspectorSet",
      "type": "event"
    },
    {
      "anonymous": false,
      "inputs": [
        {
          "indexed": true,
          "internalType": "bytes32",
          "name": "guid",
          "type": "bytes32"
        },
        {
          "indexed": false,
          "internalType": "uint32",
          "name": "srcEid",
          "type": "uint32"
        },
        {
          "indexed": true,
          "internalType": "address",
          "name": "toAddress",
          "type": "address"
        },
        {
          "indexed": false,
          "internalType": "uint256",
          "name": "amountReceived",
          "type": "uint256"
        }
      ],
      "name": "OFTReceived",
      "type": "event"
    },
    {
      "anonymous": false,
      "inputs": [
        {
          "indexed": true,
          "internalType": "bytes32",
          "name": "guid",
          "type": "bytes32"
        },
        {
          "indexed": false,
          "internalType": "uint32",
          "name": "dstEid",
          "type": "uint32"
        },
        {
          "indexed": true,
          "internalType": "address",
          "name": "fromAddress",
          "type": "address"
        },
        {
          "indexed": false,
          "internalType": "uint256",
          "name": "amountSent",
          "type": "uint256"
        },
        {
          "indexed": false,
          "internalType": "uint256",
          "name": "amountReceived",
          "type": "uint256"
        }
      ],
      "name": "OFTSent",
      "type": "event"
    },
    {
      "anonymous": false,
      "inputs": [
        {
          "indexed": true,
          "internalType": "address",
          "name": "previousOwner",
          "type": "address"
        },
        {
          "indexed": true,
          "internalType": "address",
          "name": "newOwner",
          "type": "address"
        }
      ],
      "name": "OwnershipTransferred",
      "type": "event"
    },
    {
      "anonymous": false,
      "inputs": [
        {
          "indexed": false,
          "internalType": "address",
          "name": "account",
          "type": "address"
        }
      ],
      "name": "Paused",
      "type": "event"
    },
    {
      "anonymous": false,
      "inputs": [
        {
          "indexed": false,
          "internalType": "uint32",
          "name": "eid",
          "type": "uint32"
        },
        {
          "indexed": false,
          "internalType": "bytes32",
          "name": "peer",
          "type": "bytes32"
        }
      ],
      "name": "PeerSet",
      "type": "event"
    },
    {
      "anonymous": false,
      "inputs": [
        {
          "indexed": false,
          "internalType": "address",
          "name": "preCrimeAddress",
          "type": "address"
        }
      ],
      "name": "PreCrimeSet",
      "type": "event"
    },
    {
      "anonymous": false,
      "inputs": [
        {
          "indexed": false,
          "internalType": "address",
          "name": "account",
          "type": "address"
        }
      ],
      "name": "Unpaused",
      "type": "event"
    },
    {
      "inputs": [],
      "name": "SEND",
      "outputs": [
        {
          "internalType": "uint16",
          "name": "",
          "type": "uint16"
        }
      ],
      "stateMutability": "view",
      "type": "function"
    },
    {
      "inputs": [],
      "name": "SEND_AND_CALL",
      "outputs": [
        {
          "internalType": "uint16",
          "name": "",
          "type": "uint16"
        }
      ],
      "stateMutability": "view",
      "type": "function"
    },
    {
      "inputs": [
        {
          "components": [
            {
              "internalType": "uint32",
              "name": "srcEid",
              "type": "uint32"
            },
            {
              "internalType": "bytes32",
              "name": "sender",
              "type": "bytes32"
            },
            {
              "internalType": "uint64",
              "name": "nonce",
              "type": "uint64"
            }
          ],
          "internalType": "struct Origin",
          "name": "origin",
          "type": "tuple"
        }
      ],
      "name": "allowInitializePath",
      "outputs": [
        {
          "internalType": "bool",
          "name": "",
          "type": "bool"
        }
      ],
      "stateMutability": "view",
      "type": "function"
    },
    {
      "inputs": [
        {
          "internalType": "uint32",
          "name": "_eid",
          "type": "uint32"
        },
        {
          "internalType": "uint16",
          "name": "_msgType",
          "type": "uint16"
        },
        {
          "internalType": "bytes",
          "name": "_extraOptions",
          "type": "bytes"
        }
      ],
      "name": "combineOptions",
      "outputs": [
        {
          "internalType": "bytes",
          "name": "",
          "type": "bytes"
        }
      ],
      "stateMutability": "view",
      "type": "function"
    },
    {
      "inputs": [],
      "name": "endpoint",
      "outputs": [
        {
          "internalType": "contract ILayerZeroEndpointV2",
          "name": "",
          "type": "address"
        }
      ],
      "stateMutability": "view",
      "type": "function"
    },
    {
      "inputs": [
        {
          "internalType": "uint32",
          "name": "eid",
          "type": "uint32"
        },
        {
          "internalType": "uint16",
          "name": "msgType",
          "type": "uint16"
        }
      ],
      "name": "enforcedOptions",
      "outputs": [
        {
          "internalType": "bytes",
          "name": "enforcedOption",
          "type": "bytes"
        }
      ],
      "stateMutability": "view",
      "type": "function"
    },
    {
      "inputs": [
        {
          "components": [
            {
              "internalType": "uint32",
              "name": "srcEid",
              "type": "uint32"
            },
            {
              "internalType": "bytes32",
              "name": "sender",
              "type": "bytes32"
            },
            {
              "internalType": "uint64",
              "name": "nonce",
              "type": "uint64"
            }
          ],
          "internalType": "struct Origin",
          "name": "",
          "type": "tuple"
        },
        {
          "internalType": "bytes",
          "name": "",
          "type": "bytes"
        },
        {
          "internalType": "address",
          "name": "_sender",
          "type": "address"
        }
      ],
      "name": "isComposeMsgSender",
      "outputs": [
        {
          "internalType": "bool",
          "name": "",
          "type": "bool"
        }
      ],
      "stateMutability": "view",
      "type": "function"
    },
    {
      "inputs": [
        {
          "internalType": "uint32",
          "name": "_eid",
          "type": "uint32"
        },
        {
          "internalType": "bytes32",
          "name": "_peer",
          "type": "bytes32"
        }
      ],
      "name": "isPeer",
      "outputs": [
        {
          "internalType": "bool",
          "name": "",
          "type": "bool"
        }
      ],
      "stateMutability": "view",
      "type": "function"
    },
    {
      "inputs": [
        {
          "components": [
            {
              "internalType": "uint32",
              "name": "srcEid",
              "type": "uint32"
            },
            {
              "internalType": "bytes32",
              "name": "sender",
              "type": "bytes32"
            },
            {
              "internalType": "uint64",
              "name": "nonce",
              "type": "uint64"
            }
          ],
          "internalType": "struct Origin",
          "name": "_origin",
          "type": "tuple"
        },
        {
          "internalType": "bytes32",
          "name": "_guid",
          "type": "bytes32"
        },
        {
          "internalType": "bytes",
          "name": "_message",
          "type": "bytes"
        },
        {
          "internalType": "address",
          "name": "_executor",
          "type": "address"
        },
        {
          "internalType": "bytes",
          "name": "_extraData",
          "type": "bytes"
        }
      ],
      "name": "lzReceive",
      "outputs": [],
      "stateMutability": "payable",
      "type": "function"
    },
    {
      "inputs": [
        {
          "components": [
            {
              "components": [
                {
                  "internalType": "uint32",
                  "name": "srcEid",
                  "type": "uint32"
                },
                {
                  "internalType": "bytes32",
                  "name": "sender",
                  "type": "bytes32"
                },
                {
                  "internalType": "uint64",
                  "name": "nonce",
                  "type": "uint64"
                }
              ],
              "internalType": "struct Origin",
              "name": "origin",
              "type": "tuple"
            },
            {
              "internalType": "uint32",
              "name": "dstEid",
              "type": "uint32"
            },
            {
              "internalType": "address",
              "name": "receiver",
              "type": "address"
            },
            {
              "internalType": "bytes32",
              "name": "guid",
              "type": "bytes32"
            },
            {
              "internalType": "uint256",
              "name": "value",
              "type": "uint256"
            },
            {
              "internalType": "address",
              "name": "executor",
              "type": "address"
            },
            {
              "internalType": "bytes",
              "name": "message",
              "type": "bytes"
            },
            {
              "internalType": "bytes",
              "name": "extraData",
              "type": "bytes"
            }
          ],
          "internalType": "struct InboundPacket[]",
          "name": "_packets",
          "type": "tuple[]"
        }
      ],
      "name": "lzReceiveAndRevert",
      "outputs": [],
      "stateMutability": "payable",
      "type": "function"
    },
    {
      "inputs": [
        {
          "components": [
            {
              "internalType": "uint32",
              "name": "srcEid",
              "type": "uint32"
            },
            {
              "internalType": "bytes32",
              "name": "sender",
              "type": "bytes32"
            },
            {
              "internalType": "uint64",
              "name": "nonce",
              "type": "uint64"
            }
          ],
          "internalType": "struct Origin",
          "name": "_origin",
          "type": "tuple"
        },
        {
          "internalType": "bytes32",
          "name": "_guid",
          "type": "bytes32"
        },
        {
          "internalType": "bytes",
          "name": "_message",
          "type": "bytes"
        },
        {
          "internalType": "address",
          "name": "_executor",
          "type": "address"
        },
        {
          "internalType": "bytes",
          "name": "_extraData",
          "type": "bytes"
        }
      ],
      "name": "lzReceiveSimulate",
      "outputs": [],
      "stateMutability": "payable",
      "type": "function"
    },
    {
      "inputs": [],
      "name": "msgInspector",
      "outputs": [
        {
          "internalType": "address",
          "name": "",
          "type": "address"
        }
      ],
      "stateMutability": "view",
      "type": "function"
    },
    {
      "inputs": [
        {
          "internalType": "uint32",
          "name": "",
          "type": "uint32"
        },
        {
          "internalType": "bytes32",
          "name": "",
          "type": "bytes32"
        }
      ],
      "name": "nextNonce",
      "outputs": [
        {
          "internalType": "uint64",
          "name": "nonce",
          "type": "uint64"
        }
      ],
      "stateMutability": "view",
      "type": "function"
    },
    {
      "inputs": [],
      "name": "oApp",
      "outputs": [
        {
          "internalType": "address",
          "name": "",
          "type": "address"
        }
      ],
      "stateMutability": "view",
      "type": "function"
    },
    {
      "inputs": [],
      "name": "oAppVersion",
      "outputs": [
        {
          "internalType": "uint64",
          "name": "senderVersion",
          "type": "uint64"
        },
        {
          "internalType": "uint64",
          "name": "receiverVersion",
          "type": "uint64"
        }
      ],
      "stateMutability": "pure",
      "type": "function"
    },
    {
      "inputs": [],
      "name": "oftVersion",
      "outputs": [
        {
          "internalType": "bytes4",
          "name": "interfaceId",
          "type": "bytes4"
        },
        {
          "internalType": "uint64",
          "name": "version",
          "type": "uint64"
        }
      ],
      "stateMutability": "pure",
      "type": "function"
    },
    {
      "inputs": [],
      "name": "owner",
      "outputs": [
        {
          "internalType": "address",
          "name": "",
          "type": "address"
        }
      ],
      "stateMutability": "view",
      "type": "function"
    },
    {
      "inputs": [],
      "name": "pause",
      "outputs": [],
      "stateMutability": "nonpayable",
      "type": "function"
    },
    {
      "inputs": [],
      "name": "paused",
      "outputs": [
        {
          "internalType": "bool",
          "name": "",
          "type": "bool"
        }
      ],
      "stateMutability": "view",
      "type": "function"
    },
    {
      "inputs": [
        {
          "internalType": "uint32",
          "name": "eid",
          "type": "uint32"
        }
      ],
      "name": "peers",
      "outputs": [
        {
          "internalType": "bytes32",
          "name": "peer",
          "type": "bytes32"
        }
      ],
      "stateMutability": "view",
      "type": "function"
    },
    {
      "inputs": [],
      "name": "preCrime",
      "outputs": [
        {
          "internalType": "address",
          "name": "",
          "type": "address"
        }
      ],
      "stateMutability": "view",
      "type": "function"
    },
    {
      "inputs": [
        {
          "components": [
            {
              "internalType": "uint32",
              "name": "dstEid",
              "type": "uint32"
            },
            {
              "internalType": "bytes32",
              "name": "to",
              "type": "bytes32"
            },
            {
              "internalType": "uint256",
              "name": "amount",
              "type": "uint256"
            },
            {
              "internalType": "uint256",
              "name": "minAmount",
              "type": "uint256"
            },
            {
              "internalType": "bytes",
              "name": "extraOptions",
              "type": "bytes"
            },
            {
              "internalType": "bytes",
              "name": "composeMsg",
              "type": "bytes"
            },
            {
              "internalType": "bytes",
              "name": "oftCmd",
              "type": "bytes"
            }
          ],
          "internalType": "struct SendParam",
          "name": "_sendParam",
          "type": "tuple"
        }
      ],
      "name": "quoteOFT",
      "outputs": [
        {
          "components": [
            {
              "internalType": "uint256",
              "name": "minAmount",
              "type": "uint256"
            },
            {
              "internalType": "uint256",
              "name": "maxAmount",
              "type": "uint256"
            }
          ],
          "internalType": "struct OFTLimit",
          "name": "oftLimit",
          "type": "tuple"
        },
        {
          "components": [
            {
              "internalType": "int256",
              "name": "feeAmount",
              "type": "int256"
            },
            {
              "internalType": "string",
              "name": "description",
              "type": "string"
            }
          ],
          "internalType": "struct OFTFeeDetail[]",
          "name": "oftFeeDetails",
          "type": "tuple[]"
        },
        {
          "components": [
            {
              "internalType": "uint256",
              "name": "amountSent",
              "type": "uint256"
            },
            {
              "internalType": "uint256",
              "name": "amountReceived",
              "type": "uint256"
            }
          ],
          "internalType": "struct OFTReceipt",
          "name": "oftReceipt",
          "type": "tuple"
        }
      ],
      "stateMutability": "view",
      "type": "function"
    },
    {
      "inputs": [
        {
          "components": [
            {
              "internalType": "uint32",
              "name": "dstEid",
              "type": "uint32"
            },
            {
              "internalType": "bytes32",
              "name": "to",
              "type": "bytes32"
            },
            {
              "internalType": "uint256",
              "name": "amount",
              "type": "uint256"
            },
            {
              "internalType": "uint256",
              "name": "minAmount",
              "type": "uint256"
            },
            {
              "internalType": "bytes",
              "name": "extraOptions",
              "type": "bytes"
            },
            {
              "internalType": "bytes",
              "name": "composeMsg",
              "type": "bytes"
            },
            {
              "internalType": "bytes",
              "name": "oftCmd",
              "type": "bytes"
            }
          ],
          "internalType": "struct SendParam",
          "name": "_sendParam",
          "type": "tuple"
        },
        {
          "internalType": "bool",
          "name": "_payInLzToken",
          "type": "bool"
        }
      ],
      "name": "quoteSend",
      "outputs": [
        {
          "components": [
            {
              "internalType": "uint256",
              "name": "nativeFee",
              "type": "uint256"
            },
            {
              "internalType": "uint256",
              "name": "lzTokenFee",
              "type": "uint256"
            }
          ],
          "internalType": "struct MessagingFee",
          "name": "msgFee",
          "type": "tuple"
        }
      ],
      "stateMutability": "view",
      "type": "function"
    },
    {
      "inputs": [],
      "name": "renounceOwnership",
      "outputs": [],
      "stateMutability": "nonpayable",
      "type": "function"
    },
    {
      "inputs": [
        {
          "components": [
            {
              "internalType": "uint32",
              "name": "dstEid",
              "type": "uint32"
            },
            {
              "internalType": "bytes32",
              "name": "to",
              "type": "bytes32"
            },
            {
              "internalType": "uint256",
              "name": "amount",
              "type": "uint256"
            },
            {
              "internalType": "uint256",
              "name": "minAmount",
              "type": "uint256"
            },
            {
              "internalType": "bytes",
              "name": "extraOptions",
              "type": "bytes"
            },
            {
              "internalType": "bytes",
              "name": "composeMsg",
              "type": "bytes"
            },
            {
              "internalType": "bytes",
              "name": "oftCmd",
              "type": "bytes"
            }
          ],
          "internalType": "struct SendParam",
          "name": "_sendParam",
          "type": "tuple"
        },
        {
          "components": [
            {
              "internalType": "uint256",
              "name": "nativeFee",
              "type": "uint256"
            },
            {
              "internalType": "uint256",
              "name": "lzTokenFee",
              "type": "uint256"
            }
          ],
          "internalType": "struct MessagingFee",
          "name": "_fee",
          "type": "tuple"
        },
        {
          "internalType": "address",
          "name": "_refundAddress",
          "type": "address"
        }
      ],
      "name": "send",
      "outputs": [
        {
          "components": [
            {
              "internalType": "bytes32",
              "name": "guid",
              "type": "bytes32"
            },
            {
              "internalType": "uint64",
              "name": "nonce",
              "type": "uint64"
            },
            {
              "components": [
                {
                  "internalType": "uint256",
                  "name": "nativeFee",
                  "type": "uint256"
                },
                {
                  "internalType": "uint256",
                  "name": "lzTokenFee",
                  "type": "uint256"
                }
              ],
              "internalType": "struct MessagingFee",
              "name": "fee",
              "type": "tuple"
            }
          ],
          "internalType": "struct MessagingReceipt",
          "name": "msgReceipt",
          "type": "tuple"
        },
        {
          "components": [
            {
              "internalType": "uint256",
              "name": "amountSent",
              "type": "uint256"
            },
            {
              "internalType": "uint256",
              "name": "amountReceived",
              "type": "uint256"
            }
          ],
          "internalType": "struct OFTReceipt",
          "name": "oftReceipt",
          "type": "tuple"
        }
      ],
      "stateMutability": "payable",
      "type": "function"
    },
    {
      "inputs": [
        {
          "components": [
            {
              "internalType": "uint32",
              "name": "dstEid",
              "type": "uint32"
            },
            {
              "internalType": "bytes32",
              "name": "to",
              "type": "bytes32"
            },
            {
              "internalType": "uint256",
              "name": "amount",
              "type": "uint256"
            },
            {
              "internalType": "uint256",
              "name": "minAmount",
              "type": "uint256"
            },
            {
              "internalType": "bytes",
              "name": "extraOptions",
              "type": "bytes"
            },
            {
              "internalType": "bytes",
              "name": "composeMsg",
              "type": "bytes"
            },
            {
              "internalType": "bytes",
              "name": "oftCmd",
              "type": "bytes"
            }
          ],
          "internalType": "struct SendParam",
          "name": "_sendParam",
          "type": "tuple"
        },
        {
          "components": [
            {
              "internalType": "uint256",
              "name": "nativeFee",
              "type": "uint256"
            },
            {
              "internalType": "uint256",
              "name": "lzTokenFee",
              "type": "uint256"
            }
          ],
          "internalType": "struct MessagingFee",
          "name": "_fee",
          "type": "tuple"
        },
        {
          "internalType": "address",
          "name": "_refundAddress",
          "type": "address"
        },
        {
          "internalType": "uint256",
          "name": "_deadline",
          "type": "uint256"
        },
        {
          "internalType": "uint8",
          "name": "_v",
          "type": "uint8"
        },
        {
          "internalType": "bytes32",
          "name": "_r",
          "type": "bytes32"
        },
        {
          "internalType": "bytes32",
          "name": "_s",
          "type": "bytes32"
        }
      ],
      "name": "sendWithPermit",
      "outputs": [
        {
          "components": [
            {
              "internalType": "bytes32",
              "name": "guid",
              "type": "bytes32"
            },
            {
              "internalType": "uint64",
              "name": "nonce",
              "type": "uint64"
            },
            {
              "components": [
                {
                  "internalType": "uint256",
                  "name": "nativeFee",
                  "type": "uint256"
                },
                {
                  "internalType": "uint256",
                  "name": "lzTokenFee",
                  "type": "uint256"
                }
              ],
              "internalType": "struct MessagingFee",
              "name": "fee",
              "type": "tuple"
            }
          ],
          "internalType": "struct MessagingReceipt",
          "name": "msgReceipt",
          "type": "tuple"
        },
        {
          "components": [
            {
              "internalType": "uint256",
              "name": "amountSent",
              "type": "uint256"
            },
            {
              "internalType": "uint256",
              "name": "amountReceived",
              "type": "uint256"
            }
          ],
          "internalType": "struct OFTReceipt",
          "name": "oftReceipt",
          "type": "tuple"
        }
      ],
      "stateMutability": "payable",
      "type": "function"
    },
    {
      "inputs": [
        {
          "internalType": "address",
          "name": "_delegate",
          "type": "address"
        }
      ],
      "name": "setDelegate",
      "outputs": [],
      "stateMutability": "nonpayable",
      "type": "function"
    },
    {
      "inputs": [
        {
          "components": [
            {
              "internalType": "uint32",
              "name": "eid",
              "type": "uint32"
            },
            {
              "internalType": "uint16",
              "name": "msgType",
              "type": "uint16"
            },
            {
              "internalType": "bytes",
              "name": "options",
              "type": "bytes"
            }
          ],
          "internalType": "struct EnforcedOptionParam[]",
          "name": "_enforcedOptions",
          "type": "tuple[]"
        }
      ],
      "name": "setEnforcedOptions",
      "outputs": [],
      "stateMutability": "nonpayable",
      "type": "function"
    },
    {
      "inputs": [
        {
          "internalType": "address",
          "name": "_msgInspector",
          "type": "address"
        }
      ],
      "name": "setMsgInspector",
      "outputs": [],
      "stateMutability": "nonpayable",
      "type": "function"
    },
    {
      "inputs": [
        {
          "internalType": "uint32",
          "name": "_eid",
          "type": "uint32"
        },
        {
          "internalType": "bytes32",
          "name": "_peer",
          "type": "bytes32"
        }
      ],
      "name": "setPeer",
      "outputs": [],
      "stateMutability": "nonpayable",
      "type": "function"
    },
    {
      "inputs": [
        {
          "internalType": "address",
          "name": "_preCrime",
          "type": "address"
        }
      ],
      "name": "setPreCrime",
      "outputs": [],
      "stateMutability": "nonpayable",
      "type": "function"
    },
    {
      "inputs": [],
      "name": "token",
      "outputs": [
        {
          "internalType": "address",
          "name": "",
          "type": "address"
        }
      ],
      "stateMutability": "view",
      "type": "function"
    },
    {
      "inputs": [
        {
          "internalType": "address",
          "name": "newOwner",
          "type": "address"
        }
      ],
      "name": "transferOwnership",
      "outputs": [],
      "stateMutability": "nonpayable",
      "type": "function"
    },
    {
      "inputs": [],
      "name": "unpause",
      "outputs": [],
      "stateMutability": "nonpayable",
      "type": "function"
    }
  ],
  "bytecode": "0x60c060405234801561001057600080fd5b5060405161302c38038061302c83398101604081905261002f91610195565b828282818181818181806001600160a01b03811661006757604051631e4fbdf760e01b81526000600482015260240160405180910390fd5b61007081610129565b506001600160a01b03808316608052811661009e57604051632d618d8160e21b815260040160405180910390fd5b60805160405163ca5eb5e160e01b81526001600160a01b0383811660048301529091169063ca5eb5e190602401600060405180830381600087803b1580156100e557600080fd5b505af11580156100f9573d6000803e3d6000fd5b5050506001600160a01b0390991660a05250506004805460ff60a01b19169055506101d898505050505050505050565b600080546001600160a01b038381166001600160a01b0319831681178455604051919092169283917f8be0079c531659141344cd1fd0a4f28419497f9722a3daafe3b4186f6b6457e09190a35050565b80516001600160a01b038116811461019057600080fd5b919050565b6000806000606084860312156101aa57600080fd5b6101b384610179565b92506101c160208501610179565b91506101cf60408501610179565b90509250925092565b60805160a051612de9610243600039600081816106a701528181610a5f015281816119600152611ad401526000818161045d015281816107b901528181610f6001528181611238015281816114f001528181611b3801528181611d0d0152611ddf0152612de96000f3fe6080604052600436106102195760003560e01c8063715018a61161011d578063bc70b354116100b0578063d045a0dc1161007f578063f2fde38b11610064578063f2fde38b14610678578063fc0c546a14610698578063ff7bd03d146106cb57600080fd5b8063d045a0dc14610645578063d42438851461065857600080fd5b8063bc70b354146105df578063bd815db0146105ff578063c7c7f5b314610612578063ca5eb5e11461062557600080fd5b80638da5cb5b116100ec5780638da5cb5b14610546578063b731ea0a14610564578063b98bd07014610584578063bb0b6a53146105a457600080fd5b8063715018a6146104c05780637d25a05e146104d557806382413eac146105115780638456cb591461053157600080fd5b80633b6f743b116101b05780635a0dfe4d1161017f5780635e280f11116101645780635e280f111461044b578063656ef9be1461047f5780636fc1b31e146104a057600080fd5b80635a0dfe4d146103e55780635c975abb1461042c57600080fd5b80633b6f743b146103635780633f4ba83a1461039057806352ae2879146103a55780635535d461146103b857600080fd5b8063156a0d0f116101ec578063156a0d0f146102cb57806317442b701461030c5780631f5e13341461032e5780633400288b1461034357600080fd5b80630d35b4151461021e578063111ecdad1461025657806313137d651461028e578063134d4f25146102a3575b600080fd5b34801561022a57600080fd5b5061023e610239366004611eee565b6106eb565b60405161024d93929190611f73565b60405180910390f35b34801561026257600080fd5b50600454610276906001600160a01b031681565b6040516001600160a01b03909116815260200161024d565b6102a161029c36600461207c565b6107b7565b005b3480156102af57600080fd5b506102b8600281565b60405161ffff909116815260200161024d565b3480156102d757600080fd5b50604080517f18fb6cf8000000000000000000000000000000000000000000000000000000008152600160208201520161024d565b34801561031857600080fd5b506040805160018152600260208201520161024d565b34801561033a57600080fd5b506102b8600181565b34801561034f57600080fd5b506102a161035e366004612135565b6108a9565b34801561036f57600080fd5b5061038361037e36600461216d565b6108bf565b60405161024d91906121bf565b34801561039c57600080fd5b506102a1610928565b3480156103b157600080fd5b5030610276565b3480156103c457600080fd5b506103d86103d33660046121e8565b61093a565b60405161024d919061221b565b3480156103f157600080fd5b5061041c610400366004612135565b63ffffffff919091166000908152600160205260409020541490565b604051901515815260200161024d565b34801561043857600080fd5b50600454600160a01b900460ff1661041c565b34801561045757600080fd5b506102767f000000000000000000000000000000000000000000000000000000000000000081565b61049261048d366004612240565b6109df565b60405161024d9291906122d9565b3480156104ac57600080fd5b506102a16104bb36600461232c565b610ade565b3480156104cc57600080fd5b506102a1610b48565b3480156104e157600080fd5b506104f86104f0366004612135565b600092915050565b60405167ffffffffffffffff909116815260200161024d565b34801561051d57600080fd5b5061041c61052c366004612349565b610b5a565b34801561053d57600080fd5b506102a1610b6f565b34801561055257600080fd5b506000546001600160a01b0316610276565b34801561057057600080fd5b50600254610276906001600160a01b031681565b34801561059057600080fd5b506102a161059f3660046123f5565b610b7f565b3480156105b057600080fd5b506105d16105bf366004612437565b60016020526000908152604090205481565b60405190815260200161024d565b3480156105eb57600080fd5b506103d86105fa366004612452565b610b99565b6102a161060d3660046123f5565b610d41565b6104926106203660046124b3565b610ee4565b34801561063157600080fd5b506102a161064036600461232c565b610f20565b6102a161065336600461207c565b610fbf565b34801561066457600080fd5b506102a161067336600461232c565b611007565b34801561068457600080fd5b506102a161069336600461232c565b61106a565b3480156106a457600080fd5b507f0000000000000000000000000000000000000000000000000000000000000000610276565b3480156106d757600080fd5b5061041c6106e6366004612516565b6110c1565b6040805180820190915260008082526020820152606061071e604051806040016040528060008152602001600081525090565b6040805180820182526000808252600019602080840182905284518381529081019094529195509182610774565b60408051808201909152600081526060602082015281526020019060019003908161074c5790505b509350600080610799604089013560608a013561079460208c018c612437565b6110f7565b60408051808201909152918252602082015296989597505050505050565b7f00000000000000000000000000000000000000000000000000000000000000006001600160a01b03163314610820576040517f91ac5e4f0000000000000000000000000000000000000000000000000000000081523360048201526024015b60405180910390fd5b6020870180359061083a90610835908a612437565b61113d565b146108915761084c6020880188612437565b6040517fc26bebcc00000000000000000000000000000000000000000000000000000000815263ffffffff909116600482015260208801356024820152604401610817565b6108a087878787878787611192565b50505050505050565b6108b161130a565b6108bb8282611350565b5050565b604080518082019091526000808252602082015260006108ef604085013560608601356107946020880188612437565b9150506000806108ff86846113a5565b909250905061091c6109146020880188612437565b8383886114da565b93505050505b92915050565b61093061130a565b6109386115bb565b565b60036020908152600092835260408084209091529082529020805461095e90612548565b80601f016020809104026020016040519081016040528092919081815260200182805461098a90612548565b80156109d75780601f106109ac576101008083540402835291602001916109d7565b820191906000526020600020905b8154815290600101906020018083116109ba57829003601f168201915b505050505081565b6109e7611e8e565b6040805180820190915260008082526020820152610a03611610565b604080517fd505accf000000000000000000000000000000000000000000000000000000008152336004820152306024820152908a013560448201526064810187905260ff8616608482015260a4810185905260c481018490527f00000000000000000000000000000000000000000000000000000000000000006001600160a01b03169063d505accf9060e401600060405180830381600087803b158015610aab57600080fd5b505af1158015610abf573d6000803e3d6000fd5b50505050610ace898989611654565b9150915097509795505050505050565b610ae661130a565b6004805473ffffffffffffffffffffffffffffffffffffffff19166001600160a01b0383169081179091556040519081527ff0be4f1e87349231d80c36b33f9e8639658eeaf474014dee15a3e6a4d4414197906020015b60405180910390a150565b610b5061130a565b610938600061174f565b6001600160a01b03811630145b949350505050565b610b7761130a565b6109386117ac565b610b8761130a565b6108bb610b948284612621565b6117ef565b63ffffffff8416600090815260036020908152604080832061ffff87168452909152812080546060929190610bcd90612548565b80601f0160208091040260200160405190810160405280929190818152602001828054610bf990612548565b8015610c465780601f10610c1b57610100808354040283529160200191610c46565b820191906000526020600020905b815481529060010190602001808311610c2957829003601f168201915b505050505090508051600003610c965783838080601f016020809104026020016040519081016040528093929190818152602001838380828437600092019190915250929450610b679350505050565b6000839003610ca6579050610b67565b60028310610d2457610ced84848080601f0160208091040260200160405190810160405280939291908181526020018383808284376000920191909152506118f692505050565b80610cfb8460028188612737565b604051602001610d0d93929190612761565b604051602081830303815290604052915050610b67565b8383604051639a6d49cd60e01b81526004016108179291906127b2565b60005b81811015610e4a5736838383818110610d5f57610d5f6127c6565b9050602002810190610d7191906127dc565b9050610da4610d836020830183612437565b602083013563ffffffff919091166000908152600160205260409020541490565b610dae5750610e42565b3063d045a0dc60c08301358360a0810135610dcd6101008301836127fd565b610dde610100890160e08a0161232c565b610dec6101208a018a6127fd565b6040518963ffffffff1660e01b8152600401610e0e979695949392919061285a565b6000604051808303818588803b158015610e2757600080fd5b505af1158015610e3b573d6000803e3d6000fd5b5050505050505b600101610d44565b50336001600160a01b0316638e9e70996040518163ffffffff1660e01b8152600401600060405180830381865afa158015610e89573d6000803e3d6000fd5b505050506040513d6000823e601f3d908101601f19168201604052610eb191908101906128e1565b6040517f8351eea7000000000000000000000000000000000000000000000000000000008152600401610817919061221b565b610eec611e8e565b6040805180820190915260008082526020820152610f08611610565b610f13858585611654565b915091505b935093915050565b610f2861130a565b6040517fca5eb5e10000000000000000000000000000000000000000000000000000000081526001600160a01b0382811660048301527f0000000000000000000000000000000000000000000000000000000000000000169063ca5eb5e190602401600060405180830381600087803b158015610fa457600080fd5b505af1158015610fb8573d6000803e3d6000fd5b5050505050565b333014610ff8576040517f14d4a4e800000000000000000000000000000000000000000000000000000000815260040160405180910390fd5b6108a087878787878787610891565b61100f61130a565b6002805473ffffffffffffffffffffffffffffffffffffffff19166001600160a01b0383169081179091556040519081527fd48d879cef83a1c0bdda516f27b13ddb1b3f8bbac1c9e1511bb2a659c242776090602001610b3d565b61107261130a565b6001600160a01b0381166110b5576040517f1e4fbdf700000000000000000000000000000000000000000000000000000000815260006004820152602401610817565b6110be8161174f565b50565b60006020820180359060019083906110d99086612437565b63ffffffff1681526020810191909152604001600020541492915050565b828083811015610f18576040517f71c4efed0000000000000000000000000000000000000000000000000000000081526004810182905260248101859052604401610817565b63ffffffff811660009081526001602052604081205480610922576040517ff6ff4fb700000000000000000000000000000000000000000000000000000000815263ffffffff84166004820152602401610817565b60006111a46111a18787611922565b90565b905060006111c8826111b68989611941565b6111c360208d018d612437565b611951565b905060408611156112a85760006112056111e860608c0160408d0161294f565b6111f560208d018d612437565b846112008c8c61198f565b6119da565b6040517f7cb590120000000000000000000000000000000000000000000000000000000081529091506001600160a01b037f00000000000000000000000000000000000000000000000000000000000000001690637cb59012906112749086908d90600090879060040161296c565b600060405180830381600087803b15801561128e57600080fd5b505af11580156112a2573d6000803e3d6000fd5b50505050505b6001600160a01b038216887fefed6d3500546b29533b128a29e3a94d70788727f0507505ac12eaf2e578fd9c6112e160208d018d612437565b6040805163ffffffff9092168252602082018690520160405180910390a3505050505050505050565b6000546001600160a01b03163314610938576040517f118cdaa7000000000000000000000000000000000000000000000000000000008152336004820152602401610817565b63ffffffff8216600081815260016020908152604091829020849055815192835282018390527f238399d427b947898edb290f5ff0f9109849b1c3ba196a42e35f00c50a54b98b910160405180910390a15050565b60608060006113fa6020860135856113c060a08901896127fd565b8080601f016020809104026020016040519081016040528093929190818152602001838380828437600092019190915250611a0c92505050565b909350905060008161140d576001611410565b60025b90506114306114226020880188612437565b826105fa60808a018a6127fd565b6004549093506001600160a01b0316156114d157600480546040517f043a78eb0000000000000000000000000000000000000000000000000000000081526001600160a01b039091169163043a78eb9161148e9188918891016129a8565b602060405180830381865afa1580156114ab573d6000803e3d6000fd5b505050506040513d601f19601f820116820180604052508101906114cf91906129cd565b505b50509250929050565b60408051808201909152600080825260208201527f00000000000000000000000000000000000000000000000000000000000000006001600160a01b031663ddc28c586040518060a001604052808863ffffffff16815260200161153d8961113d565b8152602001878152602001868152602001851515815250306040518363ffffffff1660e01b81526004016115729291906129ea565b6040805180830381865afa15801561158e573d6000803e3d6000fd5b505050506040513d601f19601f820116820180604052508101906115b29190612a93565b95945050505050565b6115c3611a71565b6004805460ff60a01b191690557f5db9ee0a495bf2e6ff9c91a7834c1ba4fdd244a5e8aa4e537bd38aeae4b073aa335b6040516001600160a01b03909116815260200160405180910390a1565b600454600160a01b900460ff1615610938576040517fd93c066500000000000000000000000000000000000000000000000000000000815260040160405180910390fd5b61165c611e8e565b604080518082019091526000808252602082015260008061169333604089013560608a013561168e60208c018c612437565b611ab4565b915091506000806116a489846113a5565b90925090506116d06116b960208b018b612437565b83836116ca368d90038d018d612aaf565b8b611b05565b60408051808201909152858152602080820186905282519298509096503391907f85496b760a4b7f8d66384b9df21b381f5d1b1e79f229a47aaf4c232edc2fe59a9061171e908d018d612437565b6040805163ffffffff909216825260208201899052810187905260600160405180910390a350505050935093915050565b600080546001600160a01b0383811673ffffffffffffffffffffffffffffffffffffffff19831681178455604051919092169283917f8be0079c531659141344cd1fd0a4f28419497f9722a3daafe3b4186f6b6457e09190a35050565b6117b4611610565b6004805460ff60a01b1916600160a01b1790557f62e78cea01bee320cd4e420270b5ea74000d11b0c9f74754ebdbfc544b05a2586115f33390565b60005b81518110156118c657611821828281518110611810576118106127c6565b6020026020010151604001516118f6565b818181518110611833576118336127c6565b60200260200101516040015160036000848481518110611855576118556127c6565b60200260200101516000015163ffffffff1663ffffffff168152602001908152602001600020600084848151811061188f5761188f6127c6565b60200260200101516020015161ffff1661ffff16815260200190815260200160002090816118bd9190612b31565b506001016117f2565b507fbe4864a8e820971c0247f5992e2da559595f7bf076a21cb5928d443d2a13b67481604051610b3d9190612bf1565b600281015161ffff81166003146108bb5781604051639a6d49cd60e01b8152600401610817919061221b565b60006119316020828486612737565b61193a91612c7c565b9392505050565b6000611931604060208486612737565b60006119876001600160a01b037f0000000000000000000000000000000000000000000000000000000000000000168585611c10565b509092915050565b606061199e8260408186612737565b8080601f016020809104026020016040519081016040528093929190818152602001838380828437600092019190915250929695505050505050565b6060848484846040516020016119f39493929190612c9a565b6040516020818303038152906040529050949350505050565b8051606090151580611a40576040805160208101879052908101859052606001604051602081830303815290604052611a67565b84843385604051602001611a579493929190612d18565b6040516020818303038152906040525b9150935093915050565b600454600160a01b900460ff16610938576040517f8dfc202b00000000000000000000000000000000000000000000000000000000815260040160405180910390fd5b600080611ac28585856110f7565b9092509050611afc6001600160a01b037f000000000000000000000000000000000000000000000000000000000000000016873085611c89565b94509492505050565b611b0d611e8e565b6000611b1c8460000151611cc8565b602085015190915015611b3657611b368460200151611d09565b7f00000000000000000000000000000000000000000000000000000000000000006001600160a01b0316632637a450826040518060a001604052808b63ffffffff168152602001611b868c61113d565b81526020018a815260200189815260200160008960200151111515815250866040518463ffffffff1660e01b8152600401611bc29291906129ea565b60806040518083038185885af1158015611be0573d6000803e3d6000fd5b50505050506040513d601f19601f82011682018060405250810190611c059190612d4c565b979650505050505050565b6040516001600160a01b03838116602483015260448201839052611c8491859182169063a9059cbb906064015b604051602081830303815290604052915060e01b6020820180517bffffffffffffffffffffffffffffffffffffffffffffffffffffffff8381831617835250505050611e04565b505050565b6040516001600160a01b038481166024830152838116604483015260648201839052611cc29186918216906323b872dd90608401611c3d565b50505050565b6000813414611d05576040517f9f704120000000000000000000000000000000000000000000000000000000008152346004820152602401610817565b5090565b60007f00000000000000000000000000000000000000000000000000000000000000006001600160a01b031663e4fe1d946040518163ffffffff1660e01b8152600401602060405180830381865afa158015611d69573d6000803e3d6000fd5b505050506040513d601f19601f82011682018060405250810190611d8d9190612d96565b90506001600160a01b038116611dcf576040517f5373352a00000000000000000000000000000000000000000000000000000000815260040160405180910390fd5b6108bb6001600160a01b038216337f000000000000000000000000000000000000000000000000000000000000000085611c89565b600080602060008451602086016000885af180611e27576040513d6000823e3d81fd5b50506000513d91508115611e3f578060011415611e4c565b6001600160a01b0384163b155b15611cc2576040517f5274afe70000000000000000000000000000000000000000000000000000000081526001600160a01b0385166004820152602401610817565b604051806060016040528060008019168152602001600067ffffffffffffffff168152602001611ed1604051806040016040528060008152602001600081525090565b905290565b600060e08284031215611ee857600080fd5b50919050565b600060208284031215611f0057600080fd5b813567ffffffffffffffff811115611f1757600080fd5b610b6784828501611ed6565b60005b83811015611f3e578181015183820152602001611f26565b50506000910152565b60008151808452611f5f816020860160208601611f23565b601f01601f19169290920160200192915050565b8351815260208085015190820152600060a08201604060a0604085015281865180845260c08601915060c08160051b8701019350602080890160005b83811015611fee5788870360bf19018552815180518852830151838801879052611fdb87890182611f47565b9750509382019390820190600101611faf565b50508751606088015250505060208501516080850152509050610b67565b600060608284031215611ee857600080fd5b60008083601f84011261203057600080fd5b50813567ffffffffffffffff81111561204857600080fd5b60208301915083602082850101111561206057600080fd5b9250929050565b6001600160a01b03811681146110be57600080fd5b600080600080600080600060e0888a03121561209757600080fd5b6120a1898961200c565b965060608801359550608088013567ffffffffffffffff808211156120c557600080fd5b6120d18b838c0161201e565b909750955060a08a013591506120e682612067565b90935060c089013590808211156120fc57600080fd5b506121098a828b0161201e565b989b979a50959850939692959293505050565b803563ffffffff8116811461213057600080fd5b919050565b6000806040838503121561214857600080fd5b6121518361211c565b946020939093013593505050565b80151581146110be57600080fd5b6000806040838503121561218057600080fd5b823567ffffffffffffffff81111561219757600080fd5b6121a385828601611ed6565b92505060208301356121b48161215f565b809150509250929050565b815181526020808301519082015260408101610922565b803561ffff8116811461213057600080fd5b600080604083850312156121fb57600080fd5b6122048361211c565b9150612212602084016121d6565b90509250929050565b60208152600061193a6020830184611f47565b600060408284031215611ee857600080fd5b6000806000806000806000610100888a03121561225c57600080fd5b873567ffffffffffffffff81111561227357600080fd5b61227f8a828b01611ed6565b97505061228f8960208a0161222e565b9550606088013561229f81612067565b94506080880135935060a088013560ff811681146122bc57600080fd5b9699959850939692959460c0840135945060e09093013592915050565b600060c0820190508351825267ffffffffffffffff60208501511660208301526040840151612315604084018280518252602090810151910152565b5082516080830152602083015160a083015261193a565b60006020828403121561233e57600080fd5b813561193a81612067565b60008060008060a0858703121561235f57600080fd5b612369868661200c565b9350606085013567ffffffffffffffff81111561238557600080fd5b6123918782880161201e565b90945092505060808501356123a581612067565b939692955090935050565b60008083601f8401126123c257600080fd5b50813567ffffffffffffffff8111156123da57600080fd5b6020830191508360208260051b850101111561206057600080fd5b6000806020838503121561240857600080fd5b823567ffffffffffffffff81111561241f57600080fd5b61242b858286016123b0565b90969095509350505050565b60006020828403121561244957600080fd5b61193a8261211c565b6000806000806060858703121561246857600080fd5b6124718561211c565b935061247f602086016121d6565b9250604085013567ffffffffffffffff81111561249b57600080fd5b6124a78782880161201e565b95989497509550505050565b6000806000608084860312156124c857600080fd5b833567ffffffffffffffff8111156124df57600080fd5b6124eb86828701611ed6565b9350506124fb856020860161222e565b9150606084013561250b81612067565b809150509250925092565b60006060828403121561252857600080fd5b61193a838361200c565b634e487b7160e01b600052604160045260246000fd5b600181811c9082168061255c57607f821691505b602082108103611ee857634e487b7160e01b600052602260045260246000fd5b6040516060810167ffffffffffffffff8111828210171561259f5761259f612532565b60405290565b6040805190810167ffffffffffffffff8111828210171561259f5761259f612532565b604051601f8201601f1916810167ffffffffffffffff811182821017156125f1576125f1612532565b604052919050565b600067ffffffffffffffff82111561261357612613612532565b50601f01601f191660200190565b600067ffffffffffffffff8084111561263c5761263c612532565b8360051b602061264d8183016125c8565b86815291850191818101903684111561266557600080fd5b865b8481101561272b5780358681111561267f5760008081fd5b880160603682900312156126935760008081fd5b61269b61257c565b6126a48261211c565b81526126b18683016121d6565b86820152604080830135898111156126c95760008081fd5b929092019136601f8401126126de5760008081fd5b82356126f16126ec826125f9565b6125c8565b81815236898387010111156127065760008081fd5b818986018a830137600091810189019190915290820152845250918301918301612667565b50979650505050505050565b6000808585111561274757600080fd5b8386111561275457600080fd5b5050820193919092039150565b60008451612773818460208901611f23565b8201838582376000930192835250909392505050565b81835281816020850137506000828201602090810191909152601f909101601f19169091010190565b602081526000610b67602083018486612789565b634e487b7160e01b600052603260045260246000fd5b6000823561013e198336030181126127f357600080fd5b9190910192915050565b6000808335601e1984360301811261281457600080fd5b83018035915067ffffffffffffffff82111561282f57600080fd5b60200191503681900382131561206057600080fd5b67ffffffffffffffff811681146110be57600080fd5b63ffffffff6128688961211c565b168152602088013560208201526000604089013561288581612844565b67ffffffffffffffff811660408401525087606083015260e060808301526128b160e083018789612789565b6001600160a01b03861660a084015282810360c08401526128d3818587612789565b9a9950505050505050505050565b6000602082840312156128f357600080fd5b815167ffffffffffffffff81111561290a57600080fd5b8201601f8101841361291b57600080fd5b80516129296126ec826125f9565b81815285602083850101111561293e57600080fd5b6115b2826020830160208601611f23565b60006020828403121561296157600080fd5b813561193a81612844565b6001600160a01b038516815283602082015261ffff8316604082015260806060820152600061299e6080830184611f47565b9695505050505050565b6040815260006129bb6040830185611f47565b82810360208401526115b28185611f47565b6000602082840312156129df57600080fd5b815161193a8161215f565b6040815263ffffffff8351166040820152602083015160608201526000604084015160a06080840152612a2060e0840182611f47565b90506060850151603f198483030160a0850152612a3d8282611f47565b60809690960151151560c08501525050506001600160a01b039190911660209091015290565b600060408284031215612a7557600080fd5b612a7d6125a5565b9050815181526020820151602082015292915050565b600060408284031215612aa557600080fd5b61193a8383612a63565b600060408284031215612ac157600080fd5b612ac96125a5565b82358152602083013560208201528091505092915050565b601f821115611c84576000816000526020600020601f850160051c81016020861015612b0a5750805b601f850160051c820191505b81811015612b2957828155600101612b16565b505050505050565b815167ffffffffffffffff811115612b4b57612b4b612532565b612b5f81612b598454612548565b84612ae1565b602080601f831160018114612b945760008415612b7c5750858301515b600019600386901b1c1916600185901b178555612b29565b600085815260208120601f198616915b82811015612bc357888601518255948401946001909101908401612ba4565b5085821015612be15787850151600019600388901b60f8161c191681555b5050505050600190811b01905550565b600060208083018184528085518083526040925060408601915060408160051b87010184880160005b83811015612c6e57888303603f190185528151805163ffffffff1684528781015161ffff16888501528601516060878501819052612c5a81860183611f47565b968901969450505090860190600101612c1a565b509098975050505050505050565b8035602083101561092257600019602084900360031b1b1692915050565b7fffffffffffffffff0000000000000000000000000000000000000000000000008560c01b1681527fffffffff000000000000000000000000000000000000000000000000000000008460e01b16600882015282600c82015260008251612d0881602c850160208701611f23565b91909101602c0195945050505050565b84815283602082015282604082015260008251612d3c816060850160208701611f23565b9190910160600195945050505050565b600060808284031215612d5e57600080fd5b612d6661257c565b825181526020830151612d7881612844565b6020820152612d8a8460408501612a63565b60408201529392505050565b600060208284031215612da857600080fd5b815161193a8161206756fea264697066735822122032bbc22198205a9639247e329619c2fdf3a3e24ca0553b1d6bfd7480894af80264736f6c63430008190033",
  "linkReferences": {},
  "deployedLinkReferences": {}
}